:1000000080311D28730808007E148031003086007E
:10001000003087004101961A8C1E112889319A21DF
:10002000803141019A1F1628901B19281A1B101F96
:100030001B288C31DA247E10090080311F28B5304E
:10004000840089308500D43086000030870000307D
:10005000FF000E3089318E2180313C308400213008
:100060008500B430FE000030FF00893182218031EC
:10007000F001F101F201F301F401F501F6015A304A
:100080008400003085001430FE000030FF0089310C
:1000900082218031A0308400003085003430FE00A1
:1000A0000030FF00893182217E1040018431632CB1
:1000B000803102208031003A03196A2889312E21CB
:1000C00080312808A3002708A2001B30A4008B3130
:1000D000CD238031CA30A2000030A3008A312F2204
:1000E0008031003A031DCE28E02803304A06031968
:1000F0007B2801307C2800304001B1002508B23E49
:1001000086000030263D8700310881003108A900B3
:10011000AA01A935AA0DA935AA0DA935AA0D290844
:100120002507AB002A08263DAC002B08A33E86001D
:1001300000302C3D870041014D0881004001280816
:10014000A3002708A2001930A4008B31CD238031F1
:10015000E02840012508663E86000030263D8700E5
:10016000053081002808A3002708A2000430A4005D
:100170008B31CD238031E02840012508663E860082
:100180000030263D87000330B12840012508663E37
:1001900086000030263D87000430B12841014A081E
:1001A000033A03197528073A03197528013A031908
:1001B000BC28033A0319C528013A0319A928E028E5
:1001C000400125088600260887004E3101080319E2
:1001D00020292508643E86000030263D8700033034
:1001E0000106031D20292508833E86000030263D98
:1001F00087000103031D0D292508833E860000307A
:10020000263D8700023081002808A3002708A200AD
:100210000E30A4008B31CD2308002508833E8600D4
:100220000030263D870003300106031D0800280822
:10023000A3002708A2000F30A4008B31CD230800B3
:1002400025088600260887004E3101080319752904
:1002500025088600260887004F31010803197529F3
:1002600025088600260887004A31403FA900413F03
:10027000AA00423FAB00433FAC0025088600260899
:100280008700403FAD00413FAE00423FAF00433FDB
:10029000B0002908AD022A08AE3B2B08AF3B2C0862
:1002A000B03B803030020318080040012508643E4E
:1002B00086000030263D870004300106031D6829B2
:1002C0002808A3002708A2000830A4008B31CD2302
:1002D00025088600260887004E3181012508860002
:1002E000260887004F31810108002508860026086E
:1002F00087004E310108031D08002508663E860070
:100300000030263D87000108031D080025088600EF
:1003100026088700403FA900413FAA00423FAB00AA
:10032000433FAC00410137084001A90241013808B0
:100330004001AA3B410139084001AB3B41013A0869
:100340004001AC3B2C08031DAE292B08031DAE2930
:10035000D030290207302A3B031C08004001250841
:10036000860026088700403F4101B700413FB800A2
:10037000423FB900433FBA00EC292508B23E86004F
:100380000030263D870081012808A3002708A2002D
:100390000530A4008B31CD230130E800080025088A
:1003A000B23E86000030263D8700013081002808DB
:1003B000A3002708A2000530A4008B31CD23023012
:1003C000E80008002808A3002708A2000B30A400BA
:1003D0008B31CD23E801080040016808003A031979
:1003E000BD29013A0319CF29033A0319E229F82953
:1003F00008003308643E86000030343D8700083032
:10040000810033088600340887004E3101308100B6
:10041000E82A3308663E86000030343D870003300A
:1004200001060319152A0130162A0030BA003A08CD
:10043000B500B601B535B60DB535B60DB535B60D49
:1004400035083307B7003608343DB8003708A13EF9
:10045000BB000030383DBC003A080319312A063091
:10046000322A0530B9003308683E86000030343D3A
:100470008700390881003308693E86000030343D2A
:1004800087000330810033086A3E86000030343D27
:1004900087003B0884003C08850002310008810089
:1004A00033086B3E86000030343D87003B088400F3
:1004B0003C0885000631003FB500013FB600360814
:1004C000810033086C3E86000030343D87003B08D5
:1004D00084003C0885000631E52A3308683E860022
:1004E0000030343D8700073081003308693E8600C4
:1004F0000030343D87000730810033086A3E8600B3
:100500000030343D87003308843E84000030343DA1
:1005100085000008810033086B3E86000030343DC2
:10052000870033088C3E84000030343D850000088D
:10053000810033086C3E86000030343D870033086C
:100540008D3E84000030343D8500003FB500013F02
:10055000B6003608810033086D3E86000030343D19
:10056000870033088D3E84000030343D850000084C
:10057000810033086E3E86000030343D870033082A
:100580008F3E84000030343D8500003FB500013FC0
:10059000B6003608810033086F3E86000030343DD7
:1005A000870033088F3E84000030343D850000080A
:1005B00081003308703E86000030343D87003308E8
:1005C000873E84000030343D850000088100042B04
:1005D0003308663E86000030343D87000108B500D0
:1005E000B6013608003A0319F62A042B3508003AFA
:1005F0000319042B033A0319092A073A0319092A94
:10060000013A03196D2A042B3308683EA800003014
:10061000343DA9008331162381313308683EA2009E
:100620000030343DA300893147210800B201280879
:100630008600290887004A315A3081000130B2070C
:1006400032082807AA000030293DAB002A0886009E
:100650002B0887004A3128088400290885000008F3
:1006600081000130B20732082807AA000030293D76
:10067000AB002A0886002B0887004A31280884002E
:10068000290885000131000881000130B207B1015D
:100690002808860029088700413101083102031823
:1006A0006E2B32082807AA000030293DAB002A082B
:1006B00086002B0887004A3131082807AC0000303B
:1006C000293DAD002C0884002D088500023100086A
:1006D00081000130B2070130B107482B280886009D
:1006E0002908870041310108A2002808023EAA001B
:1006F0000030293DAB002A08A3002B08A4002808DD
:1007000086002908870001088A3174228331AC00F1
:1007100032082807AD000030293DAE002D080A3E02
:10072000AF0000302E3DB0002F0886003008870053
:100730002C0881000130B20732082807AA000030D7
:10074000293DAB002A0886002B0887004A31AA30D1
:1007500081000130B20732082807AA000030293D85
:10076000AB002A0886002B0887004A3155308100EB
:100770000130B20728088600290887005A3132085C
:1007800081000800522C4B088A3E860000304C3D08
:1007900087000108031DE22B4B0886004C088700E8
:1007A000513101154B08833E860000304C3D8700D7
:1007B000033081004E08893150212308CC002208E3
:1007C000CB0008004B08843EB00000304C3DB10027
:1007D0008B31F4238331003A031D042C4B0886002F
:1007E0004C088700513101154B08833E86000030CC
:1007F0004C3D8700033081004E0889315021230889
:10080000CC002208CB0008004B08873E8600003051
:100810004C3D8700811C1E2C4B08843EB0000030EC
:100820004C3DB1008D31C8258331003A031D1E2C8B
:100830004B0886004C088700513101154B08833E58
:10084000860000304C3D8700033081004E0889311E
:1008500050212308CC002208CB0008004B08833E1F
:10086000860000304C3D870081014B0886004C0813
:1008700087004E3181014B08643E860000304C3DBC
:10088000870081010030893162212308CC002208D1
:10089000CB0008004E08893150212308CC002208E3
:1008A000CB0008004D08CF00D0015008003A0319D2
:1008B0005A2C4A2C4F080E3A0319C32B013A03193C
:1008C0002E2C4A2C080089316C2184318E314B2624
:1008D00084318931592184318A315C2284318A31D1
:1008E000082284318931772184318A31C2228431CE
:1008F0008931F6218431DD304001CB002130CC003C
:10090000DB30CD000030CE001430CF008C31A82475
:100910008431E530CB002130CC00D430CD00003024
:10092000CE001E30CF008C31A8248431ED30A700DA
:100930002130A8008931A7218431C030B400213092
:10094000B5005230B600873124278431C030AD0065
:100950002130AE000230AF008A311B228431893150
:100960003B218431BF3086002130870081013C303B
:100970004001BD002130BE008531FE258431BF30ED
:100980004001A2000030A3008931C32184316D08E9
:100990000319E22CED013C308600213087005A0813
:1009A000C03F5B08C13F5C08C23F5D08C33F3C30AD
:1009B000A5002130A600BF30A7000030A80080317C
:1009C00058208431BF304001A2000030A300E53040
:1009D000A4008C314B248431003A0319C72C3C30DD
:1009E000D5002130D600410165084001D7008E3185
:1009F00008268431E22CFC006E2D5A307C06031D43
:100A000008000130A000A301A40108007C08A10097
:100A10007C08A4060230A00008007C08A2007C0824
:100A2000A40609302202031C182D89313621080042
:100A30002208031D1E2D0430A0000800A30103306E
:100A4000A0000800A530F7000030F8002308770761
:100A500086000030783D87007C0881000130A307C4
:100A60007C08A40622082302031C08001B2D24086E
:100A70007C06031D152D0530A0000800AA307C0659
:100A8000031D152D0630A000080055307C06031DFF
:100A9000152D2108AD002208AE00FB0122087B02C3
:100AA00003186B2DAF30F7000030F8007B08770794
:100AB00086000030783D8700A530F9000030FA004C
:100AC0007B087907840000307A3D850000088100AA
:100AD0000130FB074E2D0130F200152D4101200899
:100AE000F700F8017808003A0319772D152D7708DB
:100AF000003A0319FD2C013A0319062D033A031994
:100B00000D2D013A0319222D073A0319372D013A09
:100B100003193E2D033A0319452D152D0800E12D2B
:100B20000130893162212308CC002208CB00080063
:100B30000230893162212308CC002208CB00080052
:100B40004B08B23E860000304C3D87000108CF00C4
:100B5000D001CF35D00DCF35D00DCF35D00D4F08CA
:100B60004B07D10050084C3DD2005108A13ED300A4
:100B70000030523DD4005408C7005308C600530843
:100B800086005408870042310108C8008B31A72332
:100B900085314E08893150212308CC002208CB0032
:100BA00008000330893162212308CC002208CB00E1
:100BB00008004E08893150212308CC002208CB00C0
:100BC00008004D08CF00D0015008003A0319E92D64
:100BD000D92D4F08043A0319D12D013A0319902D4C
:100BE000033A0319902D013A0319902D0C3A031979
:100BF000982D123A0319A02DD92D08003D08B33EB7
:100C0000860000303E3D870081013D0886003E0899
:100C100087000030C03FC13FC23FC33F3D08860050
:100C20003E088700513181013D0886003E0887005B
:100C3000503181013D08623E860000303E3D870014
:100C400081013D08633E860000303E3D8700810102
:100C50003D08B33E860000303E3D87000108BF00DE
:100C6000C001BF35C00DBF35C00DFF303F07840048
:100C70000730403D803885001200C1001200C104D9
:100C8000031908003E08B4003D08B3003D08B33E18
:100C9000860000303E3D87000108BF00C001BF351F
:100CA000C00DBF35C00DFF303F0784000730403D09
:100CB00080388500013F8A00003F0A008631080025
:100CC0003308643E86000030343D870004308100E4
:100CD00033088600340887004E3101308100F4303B
:100CE000B5000130B6000030B7000030B8005A0837
:100CF000B5075B08B63D5C08B73D5D08B83D3308F5
:100D00008600340887004A313508C03F3608C13FA5
:100D10003708C23F3808C33F3308860034088700CD
:100D20004F31013081003308B13EA2000030343D24
:100D3000A3003308B23E86000030343D870001082E
:100D4000A4008B311A2386313308B23E860000306E
:100D5000343D87000108B500B601B535B60DB5358F
:100D6000B60DB535B60D35083307B7003608343D36
:100D7000B8003708A13EA2000030383DA3008A31F8
:100D80008C220800AD0029080319CC2E2A0803196B
:100D9000CC2ECE2E8B318323003008008B315F2385
:100DA0008631AF002F080319CC2E2D358C311E242F
:100DB00086314001AF002F080319CA2E28088C3154
:100DC0001E2486314001AF002F080319CA2E8B3133
:100DD0003B238631AF002F080319CA2E03142D0DB3
:100DE0008C311E2486314001AF002F080319CA2E12
:100DF000AE012A082E0203181F2F29082E07A4006F
:100E00002A08FF3EAB00FF3003180030AC002C086E
:100E1000803A803C031D0E2F2B082E020318122F40
:100E20000130132F00304001A5008F31B3278631E8
:100E3000AF002F080319CA2E0130AE07F92E8B31EF
:100E40008323AF002F080800340886003508870088
:100E50003608810034088600350887004531810155
:100E60003408860035088700463181013408860041
:100E700035088700473181013730B00036088A31A4
:100E8000A6228731003A0319080060303706031D97
:100E900008003803031D0800340886003508870061
:100EA00041313708C03F3808C13F34088600350853
:100EB00087004531013081003508AE003408AD00AF
:100EC000AF01AF0A8A311B228731003A03190800AB
:100ED0003508AE003408AD000230AF008A311B2265
:100EE0008731003A03190800340886003508870066
:100EF00046310130810008000030B9000030B800F0
:100F00000030B7000030B600310830042F042E0442
:100F10000319C32F0130BA00B11B982F0130AE3531
:100F2000AF0DB00DB10D890B8F2F0130BA078C2F8B
:100F30000130B635B70DB80DB90D890B992F3108B1
:100F40003502031DAD2F30083402031DAD2F2F08CD
:100F50003302031DAD2F2E083202031CB82F2E08BA
:100F6000B2022F08B33B3008B43B3108B53B36140E
:100F70000130B136B00CAF0CAE0C890BB92F01307B
:100F8000BA02031D982F3908B1003808B00037089D
:100F9000AF003608AE0008004408450403190800F5
:100FA0008931332187318931D32187314408860043
:100FB0004508870043312B08C03F2C08C13F440837
:100FC0008600450887004331403FBB00413FBC00DD
:100FD000F430BD000130BE0044088600450887009B
:100FE00045310108BF008E318F2644088600450830
:100FF000870046313B08C03F3C08C13F08002D3404
:1010000009348F34053460340634D6340E34FC345D
:0E1010000A34C2340334F934013411340D347F
:10125A000800F301080046010E14080046010E10AA
:10126A0008004101A001A101A20108004101A00159
:10127A00A101A201080046010E108D018C01410155
:10128A000D1308002308F1002208F000F401F3010D
:10129A0041011A170800A400A5012408A60026087F
:1012AA00A3002508A20008008B130B17410196160C
:1012BA009A171A138C128B170800A4000130A50084
:1012CA002408A6002608A3002508A200080060300A
:1012DA0045018D0040308F00910104309300920146
:1012EA009401080046010E108F139101CF308E052C
:1012FA000E118E148D018C010800640080010131E9
:10130A000130FE020030FF3B7F087E0403190034DF
:10131A008329FE0012001E000130FE020030FF3B4E
:10132A007F087E04031900348F298C120130400192
:10133A00ED000130DA070030DB3DDC3DDD3D0130F8
:10134A00EA07080027088600280887008101121189
:10135A002808A3002708A200A4018B311A23080039
:10136A0099340434953404340434F334013497340E
:10137A000434953404340434F334013422088600E6
:10138A00870148318101220886008701493181019C
:10139A002208860087014A31810108000E108A312D
:1013AA0045222308AE002208AD0046018D018C01BA
:1013BA000E1440012E08AC002D08AB000800220ACA
:1013CA00860087010108A400A5012408A500A4013C
:1013DA0022088600870124080104A2002508A30028
:1013EA0008004F019A019B019C01410191121112BF
:1013FA0080304F019900273097001A08F0390838D1
:10140A009A009A16080043019E131E12F0309E0598
:10141A001F081F3940389F001F121F08F03905386E
:10142A009F007C309D009C019E1708002D082E0409
:10143A00031D212A003008001030A7002F30A80011
:10144A00A901A90A2D0886002E08870001088D31F6
:10145A004A2508007208031D342A00300800AD30FE
:10146A0086000030870022088400230885000A309D
:10147A00A40016001A00A40B3E2AF201013008004B
:10148A000C084001A90046010D084001AA002908DC
:10149A00A400A5012A08A600A7012608A700A601FC
:1014AA0024082604A20025082704A30008004E01E8
:1014BA008D01403092009001223091008E018F01FF
:1014CA009215111511129017911610161113101367
:1014DA0001308F00A0308E0089313B210800A50021
:1014EA00A6012508A6062208A606A70122082702A1
:1014FA0003188A2A2708230786000030243D87001C
:10150A000108A6060130A7077B2A26080800220838
:10151A0023040319080022088600230887004331A0
:10152A000030C03FC13F22088600230887004631A9
:10153A000030C03FC13F893140218A318931302191
:10154A000800B100A8013230A9000230AA0031080F
:10155A008631C2268A31003A031DB52A00300800B6
:10156A003230A2008931E42130088600870122083E
:10157A00C03F2308C13F0130080049018C010330F4
:10158A008D008E0101309000F3308F00910194108C
:10159A00141095171515961316139611F83096050B
:1015AA00003098005A30970000309A00783099003D
:1015BA0008001030A2002730A300E72A0130A20257
:1015CA000030A33B4F011919EE2A1B081F390319D2
:1015DA00F32A400122082304031DE32A40012208BA
:1015EA0023040319FA2A01300800003008003308DE
:1015FA00643E86000030343D8700033081003308A2
:10160A008600340887004E31013081003308833E5A
:10161A0086000030343D870001308100330886009F
:10162A00340887004F31810108002A2B181122083B
:10163A008600230887008101080018152208860001
:10164A00230887000130810008002408A500A601AC
:10165A002608003A0319322B3A2B2508003A0319B7
:10166A001B2B013A0319222B3A2B08001030A40035
:10167A002730A5008A31DE228B31003A031D472B21
:10168A00003008004F019B14532B40012408250405
:10169A000319562B0130A4020030A53B4F019B18B9
:1016AA004A2B40012408250403195D2B0130080048
:1016BA00003008001030A4002730A5008A31DE224D
:1016CA008B31003A031D6B2B003008004F011B14AD
:1016DA00772B40012408250403197A2B0130A40230
:1016EA000030A53B4F011B186E2B4001240825042E
:1016FA000319812B01300800003008001030A400C3
:10170A002730A5008A31DE228B31003A031D8F2B48
:10171A00003008004F011B159B2B400124082504AB
:10172A0003199E2B0130A4020030A53B4F011B195F
:10173A00922B4001240825040319A52B0130080027
:10174A0000300800460847040319080046088600C6
:10175A00470887001600010403190800653048028B
:10176A00031CB92B6430C800460886004708870066
:10177A004231480881004608860047088700403FF2
:10178A00BB00413FBC004808BD008F311F2708003D
:10179A002208860087014A3108300102031808002E
:1017AA002208860087014831010822078400003098
:1017BA00233D8500240880002208860087014831DD
:1017CA0022088400850108310008013E073981009A
:1017DA002208860087014A3101308107080020303B
:1017EA00A8003330A900AA01AA0A300886003108E5
:1017FA00870001088631C2268B31003A031D072C67
:10180A000030080030088600310887004331330869
:10181A008100300886003108870044313308B2005D
:10182A000230B236890B162C320803398100013096
:10183A000800A4001030A5002730A6008A31DE2255
:10184A008C31003A031D2B2C0030080024084F016C
:10185A009600332C0130A5020030A63B4F0119181F
:10186A003A2C1B081F3903193F2C4001250826046E
:10187A00031D2F2C4001250826040319292C0310C7
:10188A004F011B1F03140030093D0800220886007F
:10189A0087014A310108031D542C0030080024082E
:1018AA008600870122088400850109310008A50005
:1018BA002508220784000030233D850000088100A6
:1018CA0022088600870149312208840085010931EE
:1018DA000008013E073981002208860087014A3143
:1018EA0001308102013008000030AD000030AC0048
:1018FA000030AB000030AA00221C8B2C2608AA0755
:10190A002708AB3D2808AC3D2908AD3D0130A63576
:10191A00A70DA80DA90D890B8C2C0130A536A40C96
:10192A00A30CA20C890B932C25082404230422045B
:10193A00031D812C2D08A5002C08A4002B08A30048
:10194A002A08A20008004B084C04031908004B0897
:10195A0086004C0887004D08C03F4E08C13F4B081F
:10196A0086004C088700423181014B0886004C08EA
:10197A00870043310030C03FC13F4B0886004C0806
:10198A0087004531023081004B0886004C088700E9
:10199A0046310030C03FC13F4C08C7004B08C60063
:1019AA004F08C8008B31A72308004E01901CDF2C7A
:1019BA00101210164101901FE92C4E010C08FD006F
:1019CA007D088431FB248C31101F080070087104D3
:1019DA0003190A2D70088600710887005A31010818
:1019EA00740203180A2D740870074001A000003021
:1019FA00713DA10020088600210887004A310108AC
:101A0A004E018D000130F40708001A13F001F101AC
:101A1A00F4010130F30008003C2D4B08663E8600B5
:101A2A0000304C3D870081014B0886004C08870036
:101A3A004E3181014B0886004C0887004F318101E5
:101A4A004B08643E860000304C3D8700810100301F
:101A5A00893162212308CC002208CB0008004E08F5
:101A6A00893150212308CC002208CB0008004D08F8
:101A7A00CF00D0015008003A0319442D342D4F08E5
:101A8A001B3A0319122D342D0800AA002808031D39
:101A9A00562D2908031D542D562D8B3183230030D2
:101AAA0008008B315F238D31AC002C080319542DAB
:101ABA002A358C311E248D314001AC002C080319C3
:101ACA00522D27088C311E248D314001AC002C0880
:101ADA000319522DAB0129082B020318842D28085B
:101AEA002B078600870101088C311E248D314001A5
:101AFA00AC002C080319522D0130AB07702D8B3125
:101B0A008323AC002C0808002208230403190800C8
:101B1A002208860087014531403FA600413FA700C1
:101B2A0025082702031D9B2D240826020318A52D2C
:101B3A002208860087014531403FA400413FA500A5
:101B4A002208860023088700403FA600413FA700DD
:101B5A0026088600270887002408C03F2508C13FB9
:101B6A002208860087014231403FA600413FA70074
:101B7A002608860027088700220884008501043188
:101B8A000008810408002130A8003230A90005307D
:101B9A00AA00300886003108870001088631C2266B
:101BAA008D31003A031DDB2D003008003008860015
:101BBA003108870048313208810030088600310830
:101BCA00870049313308C03F3408C13F30088600D6
:101BDA00310887004B313508C03F3608C13F30080D
:101BEA0086003108870047313008840031088500B3
:101BFA000431033000060319042E0130052E00308B
:101C0A008100013008005508B33E86000030563D79
:101C1A00870001084101E20040015608CC0055083E
:101C2A00CB005708CD00410162084001CE0055089B
:101C3A00B33E86000030563D87000108D800D9011E
:101C4A00D835D90DD835D90D013058078400083058
:101C5A00593D80388500013F8A00003F0A008E31D5
:101C6A004C084101E40040014B084101E3006308CC
:101C7A000319080040015608BE005508BD0041017D
:101C8A0064084001BF008F316927080040019801AC
:101C9A009A01121112169212141494101411941516
:101CAA00141694127D010C108C100C110C128C124B
:101CBA002010A0102011A0112012A0128D01A10144
:101CCA008E01A201A3112312A41524168B135530D9
:101CDA007C018C00AA308C000C108B170430C200D7
:101CEA0010308F001330CB001430CA0013307B0140
:101CFA0091000B309D000C309E001E309F001D305D
:101D0A00A0008B1355307C018C00AA308C000C1477
:101D1A008B1708003D083E04031D3F08031D982E3B
:101D2A00BB01BC0108003D08A2003E08A300A401B3
:101D3A00A5013F08C000C101C201C3014308A900AF
:101D4A004208A8004108A7004008A6008C3179245F
:101D5A008E312508B1002408B0002308AF002208FC
:101D6A00AE003B08A2003C08A300A401A501003074
:101D7A00A9000030A800EA30A7006030A6008C3124
:101D8A0079248E312508B5002408B4002308B3004D
:101D9A002208B20087317C272F08BC002E08BB001E
:101DAA000800112F4B08B23E860000304C3D8700D8
:101DBA000108CF00D001CF35D00DCF35D00DCF35AA
:101DCA00D00D4F084B07D10050084C3DD2005108A6
:101DDA00A13EC4000030523DC5008731CC278E3168
:101DEA004B0886004C0887004E3181014B0886005B
:101DFA004C0887004F318101003089316221230864
:101E0A00CC002208CB0008004E0889315021230853
:101E1A00CC002208CB0008004D08CF00D0015008A2
:101E2A00003A0319192F092F4F08083A0319D72E18
:101E3A00092F08003B083C040319080065303D02DD
:101E4A00031C292F6430BD000030B1000030B000FF
:101E5A000030AF006430AE003B0886008701453190
:101E6A00403FBE00413FBF003E08A2003F08A3001A
:101E7A00A401A5013D08C000C101C201C301430874
:101E8A00A9004208A8004108A7004008A6008C3112
:101E9A0079248F312508B5002408B4002308B3003B
:101EAA002208B20087317C278F312F08C5002E08FF
:101EBA00C4003C08A3003B08A2004508A50044084A
:101ECA00A4008D31892508003D08B33E8600003004
:101EDA003E3D870001083F06031908003D08B33E4E
:101EEA00860000303E3D87003F0881003D08B33E32
:101EFA00860000303E3D87000108C000C101C035A0
:101F0A00C10DC035C10DFF30400784000730413D87
:101F1A00803885001200C2001200C20403190800AA
:101F2A003E08B4003D08B3003D08B33E86000030C9
:101F3A003E3D87000108C000C101C035C10DC03552
:101F4A00C10DFF30400784000730413D80388500CD
:101F5A00013F8A00003F0A008F3108001030A600B6
:101F6A002730A7002408031DBC2F003008008A313F
:101F7A00DE228F31003A0319BA2F4F019B15CE2F5B
:101F8A004001260827040319D12F0130A602003088
:101F9A00A73B4F01191CC52F400126082704031926
:101FAA00BA2F2408860087014F01160881001030D5
:101FBA004001A6002730A7002508031DE72F4F017F
:101FCA009B16E92F4F019B121B16F42F400126087E
:101FDA0027040319F72F0130A6020030A73B4F014F
:101FEA001B1AEB2F4001260827040319FE2F013084
:061FFA00080000300800A1
:020000040001F9
:0A000E00EC3FFF3F9F3FFF3FFF3F25
:00000001FF
