:1000000080312C287D0808007E1480310030860065
:10001000003087004101961E0E280F2816288C1EDE
:1000200012281328162889317021803141019A1F26
:100030001A281B281F28901B1E281F2827281A1F34
:10004000222823282A28101F262827282A288D31ED
:10005000592580317E10090080312E288831FC20FE
:100060008031FD007E30840089308500D6308600E6
:10007000003087000030FF000E308931642180316C
:100080003730840021308500B930FE000030FF0099
:10009000893158218031F701F801F901FA01FB019A
:1000A000FC015C308400003085001230FE0000301E
:1000B000FF00893158218031A03084000030850054
:1000C0003630FE000030FF008931582180317E102B
:1000D000400185312B2DCC304001A2000030A3001F
:1000E0008A3128228031003A031977287828E728B6
:1000F000D52803304C06031D7E2880280130812836
:1001000000304001B1002508B73E86000030263D92
:100110008700310881003108A900AA01A935AA0D7C
:10012000A935AA0DA935AA0D29082507AB002A086B
:10013000263DAC002B08A33E860000302C3D8700F6
:1001400041014F08810040012808A3002708A200B0
:100150001930A4008B313C238031E7284001250869
:10016000663E86000030263D870005308100280865
:10017000A3002708A2000430A4008B313C23803167
:10018000E72840012508663E86000030263D8700AE
:1001900003308100B72840012508663E8600003004
:1001A000263D870004308100B72841014C08033AFE
:1001B00003197928073A03197928013A0319C12844
:1001C000033A0319CB28013A0319AE28E728400166
:1001D00025088600260887004E3101080319F128FA
:1001E000F228472925088600260887004F31010894
:1001F0000319FB28FC2847292508860026088700C4
:100200004A31403FA900413FAA00423FAB00433F73
:10021000AC002508860026088700403FAD00413F1E
:10022000AE00423FAF00433FB0002908AD022A08AC
:10023000AE3B2B08AF3B2C08B03B8030300203189C
:1002400022292329AF2940012508643E8600003079
:10025000263D870004300106031D2F293029392946
:100260002808A3002708A2000830A4008B313C23F3
:100270008031400125088600260887004E31810123
:1002800025088600260887004F318101AF292508FF
:10029000860026088700403FA900413FAA00423F50
:1002A000AB00433FAC00410137084001A9024101C6
:1002B00038084001AA3B410139084001AB3B4101EC
:1002C0003A084001AC3B2C08031D70292B08031D84
:1002D0007029D030290207302A3B03187029712970
:1002E0007229AF2940012508860026088700403F73
:1002F0004101B700413FB800423FB900433FBA0057
:10030000A9292508B73E86000030263D87008101D7
:100310002808A3002708A2000530A4008B313C2345
:10032000803101304001E800AF292508B73E860042
:100330000030263D8700013081002808A3002708EF
:10034000A2000530A4008B313C2380314001E8013C
:10035000AF2940016808003A03198129952908004E
:1003600040013308643E86000030343D8700083089
:10037000810033088600340887004E310130810047
:100380008A2A3308663E86000030343D87000330F9
:100390000106031DCC29CE290130CF290030B7003A
:1003A0003308683E86000030343D87000630810007
:1003B0003308693E86000030343D870003308100F9
:1003C00033086A3E86000030343D87003308933E90
:1003D00084000030343D85000008810033086B3E06
:1003E00086000030343D87003308973E840000309B
:1003F000343D8500003FB500013FB600360881005E
:1004000033086C3E86000030343D87003308973E49
:1004100084000030343D850000088100AC2A330898
:10042000683E86000030343D870007308100330885
:10043000693E86000030343D870007308100330874
:100440006A3E86000030343D87003308843E8400D5
:100450000030343D85000008810033086B3E860083
:100460000030343D870033088C3E84000030343D3A
:1004700085000008810033086C3E86000030343D62
:10048000870033088D3E84000030343D8500003FF6
:10049000B500013FB6003608810033086D3E860086
:1004A0000030343D870033088D3E84000030343DF9
:1004B00085000008810033086E3E86000030343D20
:1004C000870033088F3E84000030343D8500003FB4
:1004D000B500013FB6003608810033086F3E860044
:1004E0000030343D870033088F3E84000030343DB7
:1004F0008500000881003308703E86000030343DDE
:1005000087003308873E84000030343D85000008B2
:100510008100AC2A3308663E86000030343D8700F7
:100520000108B500B6013608003A0319982AAC2A2A
:100530003508003A0319AC2A013A0319AC2A033AE8
:100540000319AC2A013A0319C129073A0319C12931
:10055000013A03190F2AAC2A3308683EA80000307C
:10056000343DA9008231C022813140013308683E08
:10057000A2000030343DA3008931232181310800DD
:100580004001B20128088600290887004A315A3004
:1005900081000130B20732082807AA000030293D47
:1005A000AB002A0886002B0887004A3128088400FF
:1005B00029088500000881000130B20732082807A9
:1005C000AA000030293DAB002A0886002B088700CE
:1005D0004A3128088400290885000131000881007B
:1005E0000130B207B101102B32082807AA000030F1
:1005F000293DAB002A0886002B0887004A313108C4
:100600002807AC000030293DAD002C0884002D08DF
:1006100085000231000881000130B2070130B107C6
:100620002808860029088700413101083102031C8F
:100630001A2B1B2BF42A2808860029088700413131
:100640000108A2002808023EAA000030293DAB00A4
:100650002A08A3002B08A400280886002908870080
:1006600001088A315A2282314001AC003208280741
:10067000AD000030293DAE002D080A3EAF0000302D
:100680002E3DB0002F088600300887002C0881001E
:100690000130B20732082807AA000030293DAB001C
:1006A0002A0886002B0887004A31AA3081000130D1
:1006B000B20732082807AA000030293DAB002A08FB
:1006C00086002B0887004A31553081000130B2077F
:1006D00028088600290887005A313208810008005E
:1006E000F500F42B5A307506031D772B782B142C4C
:1006F0000130A000A301A401142C7508A100750805
:10070000A4060230A000142C7508A2007508A406E7
:1007100009302202031C8D2B8E2B922B893105214F
:100720008331142C2208031D962B972B9A2B04300F
:10073000A000142CA3010330A000142CA530F0005D
:100740000030F1002308700786000030713D8700FB
:10075000750881000130A3077508A406220823024A
:10076000031CB32BB42B142C972B24087506031DE4
:10077000BA2BBB2B8E2B0530A000142CAA3075068B
:10078000031DC32BC42B8E2B0630A000142C553018
:100790007506031DCC2BCD2B8E2B2108AD00220816
:1007A000AE00F401EB2BAF30F0000030F100740824
:1007B000700786000030713D8700A530F2000030E0
:1007C000F3007408720784000030733D8500000850
:1007D00081000130F40722087402031CF02BF12B76
:1007E000D32B0130F9008E2B41012008F000F101DC
:1007F0007108003A0319FD2B8E2B7008003A03197B
:10080000722B013A03197D2B033A0319842B013A09
:1008100003199E2B073A0319B52B013A0319BE2B76
:10082000033A0319C72B8E2B0800982C4B088A3EDD
:10083000860000304C3D87000108031D202C212C30
:100840002B2C4E0889312D21843140012308CC0006
:100850002208CB00A92C4B08843EB00000304C3D50
:10086000B1008C31B0248431003A031D382C392C6E
:100870004A2C40014B0886004C0887005131011575
:10088000013089314221843140012308CC00220803
:10089000CB00A92C40014B08873E860000304C3D20
:1008A0008700811C542C552C6A2C4B08843EB000C8
:1008B00000304C3DB1008E3171268431003A031D69
:1008C000622C632C6A2C40014B0886004C08870080
:1008D0005131011540014B08833E860000304C3DEC
:1008E0008700033081004E0889312D218431400179
:1008F0002308CC002208CB00A92C4B08833E86009D
:1009000000304C3D87008101013089314221843122
:1009100040012308CC002208CB00A92C4E088931C5
:100920002D21843140012308CC002208CB00A92CC2
:1009300040014D08CF00D0015008003A0319A12C06
:100940008E2C4F080E3A0319162C013A03197D2CF0
:100950008E2C08004001AD0029080319B02CB12CE1
:10096000B62C2A08031DB52CB62CB82C00302A2D25
:100970008B31932384314001AF002F08031DC12C1C
:10098000C22CC32CB62C2D358C31E524843140018A
:10099000AF002F08031DCD2CCE2CD22C8B31BF23C2
:1009A0008431B62C28088C31E52484314001AF0015
:1009B0002F08031DDC2CDD2CDE2CCE2C8B31672385
:1009C00084314001AF002F08031DE72CE82CE92CEF
:1009D000CE2C03142D0D8C31E52484314001AF0061
:1009E0002F08031DF42CF52CF62CCE2CAE011E2D59
:1009F00029082E07A4002A08FF3EAB00FF30031889
:100A00000030AC002C08803A803C031D092D2B08D7
:100A10002E02031C0C2D0E2D01300F2D0030400135
:100A2000A5008631EC2684314001AF002F08031D5C
:100A30001A2D1B2D1C2DCE2C0130AE072A082E029C
:100A4000031C232D242DF82C8B31BF23843140012E
:100A5000AF002F0808008931372185318D319B2562
:100A6000853189311A2185318A3141228531893197
:100A7000BF21853189314D2185318A3175228531FA
:100A80008931AD21853137304001B9002130BA00BC
:100A9000863122268531C1304001A2000030A300FA
:100AA00089319C21853137304001D5002130D60075
:100AB0001230D70087314C27853115304001DB00DB
:100AC0004B30DA00BE30890B632DDA0B632DDB0B64
:100AD000632D000040016D0803196F2D702D952DB9
:100AE000ED0137308600213087005C08C03F5D088B
:100AF000C13F5E08C23F5F08C33F3730A5002130C9
:100B0000A600C130A7000030A80080316B208531DD
:100B1000952D37304001D5002130D60041016708BE
:100B20004001D70087314C278531C1304001A200F8
:100B30000030A300E730A4008C311A248531003A3C
:100B4000031DA32DA42D892D6A2D80312C28042E60
:100B5000033089314221853140012308CC0022082D
:100B6000CB00212E093089314221853140012308F3
:100B7000CC002208CB00212E4B08B73E8600003067
:100B80004C3D87000108CF00D001CF35D00DCF35C7
:100B9000D00DCF35D00D4F084B07D10050084C3D3C
:100BA000D2005108A13ED3000030523DD400540879
:100BB000C7005308C6005308860054088700423116
:100BC0000108C8008B31EB23853140014E08893183
:100BD0002D21853140012308CC002208CB00212E95
:100BE0000A3089314221853140012308CC00220896
:100BF000CB00212E4E0889312D218531400123085B
:100C0000CC002208CB00212E40014D08CF00D0019E
:100C10005008003A03190D2EFA2D4F08043A031913
:100C2000F02D013A0319A82D033A0319A82D013A12
:100C30000319A82D0C3A0319B22D123A0319BC2D31
:100C4000FA2D080040013908B83E860000303A3DD0
:100C500087008101390886003A0887000030C03FCC
:100C6000C13FC23FC33F390886003A08870051316F
:100C70008101390886003A0887005031810139081E
:100C8000623E860000303A3D870081013908633EAC
:100C9000860000303A3D870081013908B83E860061
:100CA00000303A3D87000108BB00BC01BB35BC0DDC
:100CB000BB35BC0DFF303B07840007303C3D80381E
:100CC00085001200BD001200BD040319682E692EB4
:100CD000862E3A08B4003908B3003908B83E8600B9
:100CE00000303A3D87000108BB00BC01BB35BC0D9C
:100CF000BB35BC0DFF303B07840007303C3D8038DE
:100D00008500013F8A00003F0A008631080040014B
:100D10003308643E86000030343D87000430810093
:100D200033088600340887004E3101308100F430EA
:100D3000B5000130B6000030B7000030B8005C08E4
:100D4000B5075D08B63D5E08B73D5F08B83D33089E
:100D50008600340887004A313508C03F3608C13F55
:100D60003708C23F3808C33F33088600340887007D
:100D70004F31013081003308B13EA6000030343DD0
:100D8000A7003308B73E86000030343D87000108D5
:100D9000A8008A31CF22863140013308B73E860051
:100DA0000030343D87000108B500B601B535B60DF9
:100DB000B535B60DB535B60D35083307B70036086D
:100DC000343DB8003708A13EA2000030383DA300F2
:100DD0008A3191228631080010304001A600273068
:100DE000A7002408031DF52EF62EF82E00304B2FF9
:100DF0008B3116238631003A031DFF2E002F012F61
:100E0000F62E4F019B15082F0130A6020030A73B9C
:100E10004F0119180C2F0D2F142F400126082704FD
:100E2000031D132F142F042F400126082704031D30
:100E30001A2F1B2F1C2FF62E2408860087014F0126
:100E40001608810010304001A6002730A7002508B1
:100E500003192B2F2E2F4F019B16302F4F019B1262
:100E60001B16362F0130A6020030A73B4F011B1E78
:100E70003A2F3B2F422F400126082704031D412F04
:100E8000422F322F400126082704031D482F4A2FE6
:100E900001304B2F0030080040015508B83E860055
:100EA0000030563D870001084101E400400156082A
:100EB000CC005508CB005708CD0041016408400123
:100EC000CE005508B83E86000030563D8700010828
:100ED000D800D901D835D90DD835D90D01305807EA
:100EE00084000830593D80388500013F8A00003F6A
:100EF0000A00873140014C084101E60040014B08DF
:100F00004101E50065080319862F872FA52F4001B1
:100F10005608B4005508B300410164084001B5000B
:100F20005708B600410166084001B7008D31DF2542
:100F3000873140015608BA005508B90041016608DA
:100F40004001BB008F310B27873108000030400182
:100F5000B9000030B8000030B7000030B6003108EA
:100F600030042F042E040319B62FB72FF62F0130AB
:100F7000BA00C32F0130AE35AF0DB00DB10D890BE6
:100F8000BB2F0130BA07B11FC62FC72FBA2F0130B0
:100F9000B635B70DB80DB90D890BC82F310835021C
:100FA000031DDC2F30083402031DDC2F2F08330211
:100FB000031DDC2F2E083202031CDF2FE02FE92F48
:100FC0002E08B2022F08B33B3008B43B3108B53BC2
:100FD00036140130B136B00CAF0CAE0C890BEA2FD1
:100FE0000130BA02031DF52FF62FC72F3908B100C3
:100FF0003808B0003708AF003608AE0008008C345F
:101000000934F2340A34FB340834A734053400348C
:1010100000340034003487340634BC340E340034D9
:101020000034003400340034003400340034003420
:101030000034003400340034003400340034003410
:10104000003400340034B0340A3415340434B0347D
:0610500001344B340C34A6
:1011F60008000134FD01080046010E1408004601EE
:101206000E1008004101A001A101A201A301A40141
:1012160008004101A001A101A201A301A401080047
:1012260046010E108D018C0141010D1308008B1330
:101236000B17410196169A171A138C128B17080072
:1012460040012308F8002208F700FA01FD014101D8
:101256001A1708004001A400A5012408A6002608C4
:10126600A3002508A2000800603045018D0040302B
:101276008F0091010430930092019401080040010F
:10128600A4000130A5002408A6002608A30025080E
:10129600A200080046010E108F139101CF308E0573
:1012A6000E118E148D018C0108006400800101313D
:1012B6000130FE020030FF3B7F087E04031D5929E2
:1012C6000034FE0012001E000130FE020030FF3B1B
:1012D6007F087E04031D6529003441018C1201300C
:1012E6004001ED000130DC070030DD3DDE3DDF3D35
:1012F6000130EA0708009934043495340434043480
:10130600F334013497340434953404340434F33418
:1013160001344001330886003408870050314730D5
:1013260081043308833E86000030343D8700810106
:101336000800400122088600870148318101220801
:1013460086008701493181012208860087014A31DA
:10135600810108004F019A019B019C0141019112F4
:10136600111280304F019900273097001A08F03982
:1013760008389A009A16080043019E131E12F03090
:101386009E051F081F3940389F001F121F08F0399D
:1013960005389F007C309D009C019E170800460181
:1013A6000E108A311022893140012308AE0022082E
:1013B600AD0046018D018C010E1440012E08AC00D3
:1013C6002D08AB000800400122088600230887008C
:1013D600403FA400413FA500240886002508870059
:1013E60022088400230885000431000981050800CD
:1013F60040012208860023088700403FA400413FA1
:10140600A5002408860025088700220884002308F2
:101416008500043100088104080046010C084001DB
:10142600A90046010D084001AA002908A400A5014B
:101436002A08A600A7012608A700A6012408260454
:10144600A20025082704A30008007908031D2C2AFA
:101456002D2A2F2A0030402AAD3086000030870022
:10146600400122088400230885000A30A4001600E3
:101476001A00A40B3A2AF901013008004E018D0129
:10148600403092009001223091008E018F0192151A
:101496001115111290179116101611131013013011
:1014A6008F00A0308E0089310C218A31080040015E
:1014B600A500A6012508A6062208A606A7016D2AEC
:1014C6002708230786000030243D87000108A6066A
:1014D6000130A70722082702031C722A732A632AEF
:1014E6002608080049018C0103308D008E01013069
:1014F6009000F3308F009101941014109517151574
:10150600961316139611F8309605003098005A3047
:10151600970000309A0078309900080040012208B0
:101526002304031D972A982A992AAF2A220886009F
:101536002308870043310030C03FC13F22088600A0
:101546002308870046310030C03FC13F893113214F
:101556008A318831FF208A31080040013308643E11
:1015660086000030343D8700033081003308860052
:10157600340887004E31013081003308833E8600EF
:101586000030343D8700013081003308860034087E
:1015960087004F3181010800E02A2708A3002608AA
:1015A600A2008931E6218A31F12A2708A3002608FC
:1015B600A2008931FB218A31F12A40012808A900BD
:1015C600AA012A08003A0319E92AF12A2908003A49
:1015D6000319D02A013A0319D82AF12A0800072B41
:1015E6000130893142218A3140012308CC0022088A
:1015F600CB00152B4E0889312D218A314001230855
:10160600CC002208CB00152B40014D08CF00D0019D
:101616005008003A0319102BFD2A4F08123A0319F5
:10162600F32AFD2A080010304001A2002730A3004B
:10163600202B0130A2020030A33B4F011919242BA5
:10164600252B2B2B1B081F3903192A2B2B2B322B4F
:10165600400122082304031D312B322B1C2B400191
:1016660022082304031D382B3A2B01303B2B003074
:10167600080040012208860087014A31083001022D
:10168600031C462B472B482B662B22088600870116
:1016960048310108220784000030233D85002408D4
:1016A60080002208860087014831220884008501CF
:1016B60008310008013E07398100220886008701AB
:1016C6004A3101308107080010304001A40027305C
:1016D600A5008B3116238B31003A031D732B742B17
:1016E600762B0030922B4F019B147D2B0130A402E8
:1016F6000030A53B4F019B1C812B822B892B40017F
:1017060024082504031D882B892B792B40012408E6
:101716002504031D8F2B912B0130922B00300800DE
:1017260010304001A4002730A5008B3116238B31E1
:10173600003A031D9F2BA02BA22B0030BE2B4F017E
:101746001B14A92B0130A4020030A53B4F011B1C22
:10175600AD2BAE2BB52B400124082504031DB42B5D
:10176600B52BA52B400124082504031DBB2BBD2B3F
:101776000130BE2B0030080010304001A400273095
:10178600A5008B3116238B31003A031DCB2BCC2BB6
:10179600CE2B0030EA2B4F011B15D52B0130A402AE
:1017A6000030A53B4F011B1DD92BDA2BE12B400145
:1017B60024082504031DE02BE12BD12B400124082E
:1017C6002504031DE72BE92B0130EA2B0030080026
:1017D6004001460847040319F12BF22B192C460841
:1017E60086004708870016000104031DFB2BFC2B0F
:1017F600FD2B192C65304802031C022C032C052CEA
:101806006430C80046088600470887004231480809
:1018160081004608860047088700403FBB00413FDD
:10182600BC004808BD008F31AC278B310800400151
:101836002208860087014A310108031D232C242C27
:10184600262C00304A2C24088600870122088400B2
:10185600850109310008A50025082207840000300B
:10186600233D850000088100220886008701493152
:1018760022088400850109310008013E07398100EC
:101886002208860087014A310130810201300800B2
:101896006D2C4B08663E860000304C3D870081016A
:1018A6004B0886004C0887004E3181010130893192
:1018B60042218C3140012308CC002208CB007B2C2E
:1018C6004E0889312D218C3140012308CC00220895
:1018D600CB007B2C40014D08AB00AC012C08003A34
:1018E6000319762C632C2B081B3A03194C2C632CFA
:1018F600080000304001AD000030AC000030AB0005
:101906000030AA00221C882C892C912C2608AA07B4
:101916002708AB3D2808AC3D2908AD3D0130A6356A
:10192600A70DA80DA90D890B922C0130A536A40C84
:10193600A30CA20C890B992C250824042304220449
:10194600031DA62CA72C852C2D08A5002C08A40069
:101956002B08A3002A08A200080040013008310421
:10196600031DB62CB72CB92C0030E42C2030A8006F
:101976003330A900AA01AA0A300886003108870078
:1019860001088431AA248C31003A031DCB2CCC2CBF
:10199600CD2CB72C40013008860031088700433132
:1019A6003308810030088600310887004431330847
:1019B600B2000230B236890BDD2C320803398100C1
:1019C600013008004001A4001030A5002730A60011
:1019D6008B3116238C31003A031DF22CF32CF52C97
:1019E60000301E2D400124084F019600FE2C0130C8
:1019F600A5020030A63B4F011918022D032D092D13
:101A06001B081F390319082D092D102D4001250823
:101A16002604031D0F2D102DFA2C4001250826043F
:101A2600031D162D172D182DF32C03104F011B1F08
:101A360003140030093D0800400144084504031D15
:101A4600252D262D272D582D893102218D318931BD
:101A5600D2218D3140014408860045088700433174
:101A66002B08C03F2C08C13F440886004508870064
:101A76004331403FBB00413FBC00F430BD00013064
:101A8600BE00440886004508870045310108BF00AE
:101A96008F315B278D314001440886004508870059
:101AA60046313B08C03F3C08C13F08004E01901C30
:101AB6005D2D5E2D602D101210164101901F642DB4
:101AC600652D6C2D4E010C08F600760883317023C7
:101AD6008D314101101F702D712D9A2D77087804D4
:101AE6000319762D772D942D7708860078088700C0
:101AF6005A3101087A020318812D822D942D7A0815
:101B060077074001A0000030783DA100200886003C
:101B1600210887004A3101084E018D000130FA077D
:101B26009A2D1A13F701F801FA010130FD00080099
:101B3600400198019A01121112169212141494106F
:101B460014119415141694127D010C108C100C119E
:101B56000C128C122010A0102011A0112012A0121D
:101B66008D01A1018E01A201A3112312A415241631
:101B76008B1355307C018C00AA308C000C108B170F
:101B86000430C20010308F001330CB001430CA006E
:101B960013307B0191000B309D000C309E001E30EF
:101BA6009F001D30A0008B1355307C018C00AA309D
:101BB6008C000C148B170800803102208D31003AFE
:101BC600031DE62DE72DE82D272E8831FD208D31CA
:101BD60040013308683E86000030343D8700DB3024
:101BE60081003308693E86000030343D87000330AB
:101BF600810033086A3E86000030343D8700350890
:101C0600810033086B3E86000030343D870036087D
:101C1600810033086C3E86000030343D870037086B
:101C260081003308683EA8000030343DA9008231A7
:101C3600C0228D3140013308683EA2000030343D99
:101C4600A300893123218D31080040012208230495
:101C5600031D2E2E2F2E302E702E220886002308CE
:101C660087004531403FA600413FA70025082702CF
:101C7600031D3F2E240826020318422E432E4C2E07
:101C860022088600230887004531403FA400413FD3
:101C9600A5002208860023088700403FA600413F92
:101CA600A70026088600270887002408C03F2508C5
:101CB600C13F22088600230887004231403FA60024
:101CC600413FA700260886002708870022088400CF
:101CD600230885000431000881040800400130080B
:101CE6003104031D772E782E7A2E0030BB2E21303C
:101CF600A8003230A9000530AA0030088600310855
:101D0600870001088431AA248E31003A031D8C2EE7
:101D16008D2E8E2E782E40013008860031088700E1
:101D26004831320881003008860031088700493181
:101D36003308C03F3408C13F3008860031088700A9
:101D46004B313508C03F3608C13F300886003108A0
:101D5600870047313008840031088500043103309C
:101D66000006031DB72EB92E0130BA2E00308100B1
:101D76000800FC2E4B08B73E860000304C3D87001D
:101D86000108CF00D001CF35D00DCF35D00DCF35DE
:101D9600D00D4F084B07D10050084C3DD2005108DA
:101DA600A13EC4000030523DC5008D311F258E3145
:101DB60040014B0886004C0887004E3181014B08D4
:101DC60086004C0887004F3181010130893142215C
:101DD6008E3140012308CC002208CB000A2F4E0882
:101DE60089312D218E3140012308CC002208CB00F9
:101DF6000A2F40014D08CF00D0015008003A0319C0
:101E0600052FF22E4F08083A0319BD2EF22E0800B0
:101E160040013908B83E860000303A3D8700010887
:101E26003B06031D172F182F192F5A2F3908B83EB6
:101E3600860000303A3D87003B0881003908B83EED
:101E4600860000303A3D87000108BC00BD01BC3564
:101E5600BD0DBC35BD0DFF303C07840007303D3D50
:101E6600803885001200BE001200BE0403193C2F04
:101E76003D2F5A2F3A08B4003908B3003908B83E46
:101E8600860000303A3D87000108BC00BD01BC3524
:101E9600BD0DBC35BD0DFF303C07840007303D3D10
:101EA60080388500013F8A00003F0A008F31080014
:101EB60040013D083E040319612F622F672F3F083A
:101EC600031D662F672F6A2FBB01BC01AB2F3D0890
:101ED600A2003E08A300A401A5013F08C000C1015D
:101EE600C201C3014308A9004208A8004108A7008F
:101EF6004008A6008C317C248F3140012508B100B2
:101F06002408B0002308AF002208AE003B08A20058
:101F16003C08A300A401A5010030A9000030A800D8
:101F2600EA30A7006030A6008C317C248F31400156
:101F36002508B5002408B4002308B3002208B2001F
:101F46008731A6278F3140012F08BC002E08BB0021
:101F5600080040013B083C04031DB22FB32FB42FE9
:101F6600FF2F65303D02031CB92FBA2FBC2F6430FA
:101F7600BD000030B1000030B0000030AF0064306A
:101F8600AE003B0886003C0887004531403FBE0056
:101F9600413FBF003E08A2003F08A300A401A501DF
:101FA6003D08C000C101C201C3014308A90042089F
:101FB600A8004108A7004008A6008C317C248F3178
:101FC60040012508B5002408B4002308B300220800
:101FD600B2008731A6278F3140012F08C5002E0891
:101FE600C4003C08A3003B08A2004508A50044081D
:0A1FF600A4008E3128268F31080068
:020000040001F9
:0A000E00EC3FFF3F9F3FFF3FFF3F25
:00000001FF
