:1000000080311D28730808007E148031003086007E
:10001000003087004101961A8C1E11288931402139
:10002000803141019A1F1628901B19281A1B101F96
:100030001B288731C7277E10090080311F285B30BD
:10004000840089308500DC30860000308700003075
:10005000FF000E308931342180313430840021306A
:100060008500BC30FE000030FF008931282180313E
:10007000F001F101F201F301F401F501F6015A304A
:100080008400003085001430FE000030FF0089310C
:1000900028218031A0308400003085003C30FE00F3
:1000A0000030FF00893128217E1040018431AE2CC0
:1000B000803102208031003A031974282508643EFB
:1000C00086000030263D870008300106031D742895
:1000D0008831D42080312808A3002708A2001B30D3
:1000E000A4008B3173238031D230A2000030A300F2
:1000F0008931D5218031003A031D0B291D29033098
:100100005206031985280130862800304001B100CD
:100110002508BA3E86000030263D87003108810060
:100120003108A900AA01A935AA0DA935AA0DA9353A
:10013000AA0D29082507AB002A08263DAC002B088C
:10014000AB3E860000302C3D870041015508810000
:1001500040012808A3002708A2001930A4008B3111
:10016000732380311D2940012508663E860000303A
:10017000263D87000108031D1D292508663E8600CF
:100180000030263D8700053081002508663E860048
:100190000030263D8700053081002808A30027088D
:1001A000A2000430A4008B31732380311D2940014B
:1001B0002508663E86000030263D87000108031DA5
:1001C0001D292508663E86000030263D8700033045
:1001D00081002508663E86000030263D87000330FA
:1001E000CC2840012508663E86000030263D870069
:1001F0000108031D1D292508663E86000030263DA6
:100200008700043081002508663E86000030263DC8
:1002100087000430CC2841015208033A03197F2893
:10022000073A03197F28013A0319D728033A03191B
:10023000F128013A0319B3281D2940012508860039
:10024000260887004E31010803195D292508643E00
:1002500086000030263D870003300106031D5D291E
:1002600025088B3E86000030263D87000103031DD4
:100270004A2925088B3E86000030263D8700023043
:1002800081002808A3002708A2000E30A4008B31AB
:100290007323080025088B3E86000030263D87002A
:1002A00003300106031D08002808A3002708A20048
:1002B0000F30A4008B317323080025088600260820
:1002C00087004E3101080319B22925088600260847
:1002D00087004F3101080319B22925088600260836
:1002E00087004A31403FA900413FAA00423FAB008E
:1002F000433FAC002508860026088700403FAD003C
:10030000413FAE00423FAF00433FB0002908AD027D
:100310002A08AE3B2B08AF3B2C08B03B80303002A4
:100320000318080040012508643E86000030263D81
:10033000870004300106031DA5292808A30027080B
:10034000A2000830A4008B317323250886002608FC
:1003500087004E31810125088600260887004F312D
:10036000810108002508663E86000030263D870092
:1003700001080319CC2925088600260887004E317C
:100380000108031DCC292808A3002708A200043077
:10039000A4008B317323803125088600260887004E
:1003A0004E310108031D0800250886002608870035
:1003B000403FA900413FAA00423FAB00433FAC0091
:1003C000410137084001A902410138084001AA3B18
:1003D000410139084001AB3B41013A084001AC3BC7
:1003E0002C08031DFC292B08031DFC29D0302902F1
:1003F00007302A3B031C0800400125088600260818
:100400008700403F4101B700413FB800423FB9007B
:10041000433FBA003A2A2508BA3E86000030263DFE
:10042000870081012808A3002708A2000530A40046
:100430008B3173230130E80008002508BA3E86009E
:100440000030263D8700013081002808A3002708DE
:10045000A2000530A4008B3173230230E8000800AD
:100460002808A3002708A2000B30A4008B317323B7
:10047000E801080040016808003A03190B2A013A14
:1004800003191D2A033A0319302A462A08003308A3
:10049000643E86000030343D870008308100330818
:1004A0008600340887004E31013081002F2B33083D
:1004B000663E86000030343D870003300106031994
:1004C000632A0130642A0030B9003908B500B6014A
:1004D000B535B60DB535B60DB535B60D350833079E
:1004E000B7003608343DB8003708A93EBA000030DE
:1004F000383DBB003308683E86000030343D87003D
:10050000F03081003308693E86000030343D8700BA
:100510000330810033086A3E86000030343D870096
:100520003A0884003B088500023100088100330846
:100530006B3E86000030343D87003A0884003B085B
:1005400085000631003FB500013FB6003608810046
:1005500033086C3E86000030343D87003A08840042
:100560003B08850006312C2B3308683E860000309E
:10057000343D8700073081003308693E8600003033
:10058000343D87000730810033086A3E8600003022
:10059000343D870033088C3E84000030343D8500B4
:1005A0000008810033086B3E86000030343D870030
:1005B0003308943E84000030343D850000088100FB
:1005C00033086C3E86000030343D87003308953E8A
:1005D00084000030343D8500003FB500013FB60087
:1005E0003608810033086D3E86000030343D8700B8
:1005F0003308953E84000030343D850000088100BA
:1006000033086E3E86000030343D87003308973E45
:1006100084000030343D8500003FB500013FB60046
:100620003608810033086F3E86000030343D870075
:100630003308973E84000030343D85000008810077
:100640003308703E86000030343D870033088F3E0B
:1006500084000030343D8500000881004B2B3308B6
:10066000663E86000030343D87000108B500B601C3
:100670003608003A03193D2B4B2B3508003A031975
:100680004B2B033A0319572A073A0319572A013A01
:100690000319B42A4B2B3308683EA8000030343DC0
:1006A000A9008331602382318831D420823133081C
:1006B000683EA2000030343DA3008831ED200800E0
:1006C000B201280886002908870052315A3081007B
:1006D0000130B20732082807AA000030293DAB00DC
:1006E0002A0886002B088700523128088400290830
:1006F0008500000881000130B20732082807AA00EF
:100700000030293DAB002A0886002B0887005231B3
:100710002808840029088500013100088100013083
:10072000B207B10128088600290887004131010875
:1007300031020318B82B32082807AA000030293DDF
:10074000AB002A0886002B088700523131082807A1
:10075000AC000030293DAD002C0884002D08850038
:100760000231000881000130B2070130B107922B3D
:10077000280886002908870041310108A2002808BE
:10078000023EAA000030293DAB002A08A3002B0836
:10079000A400280886002908870001088A311A2247
:1007A0008331AC0032082807AD000030293DAE008F
:1007B0002D08123EAF0000302E3DB0002F088600FD
:1007C000300887002C0881000130B2073208280762
:1007D000AA000030293DAB002A0886002B088700BC
:1007E0005231AA3081000130B20732082807AA002E
:1007F0000030293DAB002A0886002B0887005231C3
:10080000553081000130B2072808223E86000030B2
:10081000293D87003208810008009D2C4B08923E3C
:10082000860000304C3D87000108031D2D2C4B082D
:1008300086004C088700513101154B088B3E86001D
:1008400000304C3D8700033081004E088831F6208F
:100850002308CC002208CB0008004B088C3EB000D7
:1008600000304C3DB1008B319A238431003A031D96
:100870004F2C4B0886004C088700513101154B085E
:100880008B3E860000304C3D8700033081004E08CF
:100890008831F6202308CC002208CB0008004B0842
:1008A0008F3E860000304C3D8700811C692C4B0830
:1008B0008C3EB00000304C3DB1008D31312584318B
:1008C000003A031D692C4B0886004C088700513103
:1008D00001154B088B3E860000304C3D87000330ED
:1008E00081004E088831F6202308CC002208CB0076
:1008F00008004B088B3E860000304C3D870081018C
:100900004B0886004C0887004E3181014B08643E3D
:10091000860000304C3D870081010030893108217C
:100920002308CC002208CB0008004E088831F620AE
:100930002308CC002208CB0008004D08CF00D001CE
:100940005008003A0319A52C952C4F080E3A0319AC
:100950000E2C013A0319792C952C080089311221AB
:1009600084318D31B42584318831FF2084318A313E
:10097000022284318931AE21843189311D218431B3
:100980008A316822843189319C218431DD304001F3
:10099000CB002130CC00E330CD000030CE0014304D
:1009A000CF008C314E248431E530CB002130CC0097
:1009B000DC30CD000030CE001E30CF008C314E2414
:1009C0008431ED30A7002130A80089314D218431D8
:1009D000C030B4002130B5005230B60087316F27E7
:1009E0008431C030AD002130AE000230AF0089311B
:1009F000C12184318831E1208431BF30860021302B
:100A00008700810134304001BC002130BD008631B7
:100A100049268431BF304001A2000030A300893153
:100A2000692184316D0803192D2DED0134308600C4
:100A3000213087005A08C03F5B08C13F5C08C23FB5
:100A40005D08C33F3430A5002130A600BF30A700A9
:100A50000030A800803158208431BF304001A2000E
:100A60000030A300ED30A4008B31F1238431003A33
:100A70000319122D3430D5002130D60041016D0804
:100A80004001D7008D31712584312D2DFC00B92D09
:100A90005A307C06031D08000130A000A301A40108
:100AA00008007C08A1007C08A4060230A000080011
:100AB0007C08A2007C08A40609302202031C632DD6
:100AC0008831DC2008002208031D692D0430A000B5
:100AD0000800A3010330A0000800A530F700003093
:100AE000F8002308770786000030783D87007C08EF
:100AF00081000130A3077C08A40622082302031CFE
:100B00000800662D24087C06031D602D0530A0001A
:100B10000800AA307C06031D602D0630A0000800E6
:100B200055307C06031D602D2108AD002208AE0063
:100B3000FB0122087B020318B62DAF30F70000300E
:100B4000F8007B08770786000030783D8700A530E5
:100B5000F9000030FA007B087907840000307A3D04
:100B60008500000881000130FB07992D0130F2005B
:100B7000602D41012008F700F8017808003A0319B8
:100B8000C22D602D7708003A0319482D013A031948
:100B9000512D033A0319582D013A03196D2D073AC7
:100BA0000319822D013A0319892D033A0319902D57
:100BB000602D08002C2E0130893108212308CC003B
:100BC0002208CB0008000230893108212308CC001C
:100BD0002208CB0008004B08BA3E860000304C3D8E
:100BE00087000108CF00D001CF35D00DCF35D00D13
:100BF000CF35D00D4F084B07D10050084C3DD200E7
:100C00005108A93ED3000030523DD4005408C7001B
:100C10005308C60053088600540887004231010873
:100C2000C8008B314D2385314E088831F6202308CA
:100C3000CC002208CB0008000330893108212308AA
:100C4000CC002208CB0008004E088831F62023088B
:100C5000CC002208CB0008004D08CF00D00150087E
:100C6000003A0319342E242E4F08043A03191C2E7F
:100C7000013A0319DB2D033A0319DB2D013A03195D
:100C8000DB2D0C3A0319E32D123A0319EB2D242E18
:100C900008003C08BB3E860000303D3D87008101D6
:100CA0003C0886003D0887000030C03FC13FC23F7E
:100CB000C33F3C0886003D088700513181013C0854
:100CC00086003D088700503181013C08623E860065
:100CD00000303D3D870081013C08633E86000030C6
:100CE0003D3D870081013C08BB3E860000303D3D14
:100CF00087000108BE00BF01BE35BF0DBE35BF0D68
:100D0000FF303E07840007303F3D803885001200E9
:100D1000C0001200C004031908003D08B4003C08DC
:100D2000B3003C08BB3E860000303D3D8700010813
:100D3000BE00BF01BE35BF0DBE35BF0DFF303E0743
:100D4000840007303F3D80388500013F8A00003F26
:100D50000A00863108003308643E86000030343DC6
:100D600087000430810033088600340887004E3144
:100D700001308100F430B5000130B6000030B7001A
:100D80000030B8005A08B5075B08B63D5C08B73DAF
:100D90005D08B83D33088600340887004A313508BD
:100DA000C03F3608C13F3708C23F3808C33F330849
:100DB0008600340887004F31013081003308B93E86
:100DC000A2000030343DA3003308BA3E8600003054
:100DD000343D87000108A4008A31C02286313308DF
:100DE000BA3E86000030343D87000108B500B601E8
:100DF000B535B60DB535B60DB535B60D3508330775
:100E0000B7003608343DB8003708A93EA2000030CC
:100E1000383DA3008A3132220800AD0029080319A9
:100E2000172F2A080319172F192F8B312923003068
:100E300008008B3105238731AF002F080319172FC6
:100E40002D358B31C42387314001AF002F080319A2
:100E5000152F28088B31C42387314001AF002F089C
:100E60000319152F8A31E1228731AF002F080319AA
:100E7000152F03142D0D8B31C42387314001AF0092
:100E80002F080319152FAE012A082E0203186A2F06
:100E900029082E07A4002A08FF3EAB00FF300318E4
:100EA0000030AC002C08803A803C031D592F2B08E1
:100EB0002E0203185D2F01305E2F00304001A50087
:100EC0008F3163278731AF002F080319152F0130A9
:100ED000AE07442F8B312923AF002F0808003408B8
:100EE00086003508870036088100340886003508FA
:100EF0008700453181013408860035088700463176
:100F00008101340886003508870047318101373078
:100F1000B00036088A314C228731003A03190800A4
:100F200060303706031D08003803031D080034082D
:100F300086003508870041313708C03F3808C13F77
:100F400034088600350887004531013081003508B6
:100F5000AE003408AD00AF01AF0A8931C12187313D
:100F6000003A031908003508AE003408AD0002301D
:100F7000AF008931C1218731003A031908003408D4
:100F800086003508870046310130810008004E0197
:100F9000901CCC2F101210164101901FD62F4E011D
:100FA0000C08FD007D08853146258731101F08009B
:100FB000700871040319F82F7008223E8600003073
:100FC000713D8700010874020318F82F7408700738
:100FD0004001A0000030713DA100200886002108DA
:100FE0008700523101084E018D000130F4070800DE
:100FF0001A13F001F101F4010130F3000800D334B9
:101000000834DA340534AB34063486340E34A23472
:0E1010000A340D340434473402343F340E34B5
:1011A6000800F301080046010E14080046010E105F
:1011B60008004101A001A101A20108004101A0010E
:1011C600A101A201080046010E108D018C0141010A
:1011D6000D1308002308F1002208F000F401F301C2
:1011E60041011A170800A400A5012408A600260834
:1011F600A3002508A20008008B130B1741019616C1
:101206009A171A138C128B170800A4000130A50038
:101216002408A6002608A3002508A20008006030BE
:1012260045018D0040308F009101043093009201FA
:101236009401080046010E108F139101CF308E05E0
:101246000E118E148D018C0108006400800101319D
:101256000130FE020030FF3B7F087E040319003494
:101266002929FE0012001E000130FE020030FF3B5D
:101276007F087E040319003435298C1201304001A1
:10128600ED000130DA070030DB3DDC3DDD3D0130AD
:10129600EA0708002708860028088700810112113E
:1012A6002808A3002708A200A4018A31C02208004A
:1012B60099340434953404340434F33401349734C3
:1012C6000434953404340434F3340134220886009B
:1012D6008701503181012208860087015131810141
:1012E6002208860087015231810108000E108931DB
:1012F600EB212308AE002208AD0046018D018C01CA
:101306000E1440012E08AC002D08AB000800220A7E
:10131600860087010108A400A5012408A500A401F0
:1013260022088600870124080104A2002508A300DC
:1013360008004F019A019B019C0141019112111273
:1013460080304F019900273097001A08F039083885
:101356009A009A16080043019E131E12F0309E054D
:101366001F081F3940389F001F121F08F039053823
:101376009F007C309D009C019E1708002D082E04BE
:10138600031DC729003008001030A7002F30A80021
:10139600A901A90A2D0886002E08870001088C31AC
:1013A600B32408007208031DDA2900300800AD30A6
:1013B60086000030870022088400230885000A3052
:1013C600A40016001A00A40BE429F201013008005B
:1013D6000C084001A90046010D084001AA00290891
:1013E600A400A5012A08A600A7012608A700A601B1
:1013F60024082604A20025082704A30008004E019D
:101406008D01403092009001223091008E018F01B3
:10141600921511151112901791161016111310131B
:1014260001308F00A0308E008831E1200800A50031
:10143600A6012508A6062208A606A7012208270255
:101446000318302A2708230786000030243D87002A
:101456000108A6060130A707212A26080800220847
:101466002304031908002208860023088700433155
:101476000030C03FC13F220886002308870046315E
:101486000030C03FC13F8831E6208A318831D620FE
:101496000800B100A8013230A9000230AA003108C4
:1014A60087310D278A31003A031D5B2A0030080078
:1014B6003230A20089318A2130088600870122084D
:1014C600C03F2308C13F0130080049018C010330A9
:1014D6008D008E0101309000F3308F009101941041
:1014E600141095171515961316139611F8309605C0
:1014F600003098005A30970000309A0078309900F2
:1015060008001030A2002730A3008D2A0130A20265
:101516000030A33B4F011919942A1B081F390319E0
:10152600992A400122082304031D892A4001220822
:1015360023040319A02A01300800003008003308EC
:10154600643E86000030343D870003308100330856
:101556008600340887004E310130810033088B3E07
:1015660086000030343D8700013081003308860054
:10157600340887004F3181010800D02A181122084B
:1015860086002308870081010800181522088600B6
:10159600230887000130810008002408A500A60161
:1015A6002608003A0319D82AE02A2508003A031922
:1015B600C12A013A0319C82AE02A08001030A400FB
:1015C6002730A5008A3184228A31003A031DED2A8C
:1015D600003008004F019B14F92A40012408250415
:1015E6000319FC2A0130A4020030A53B4F019B18C9
:1015F600F02A4001240825040319032B01300800B2
:10160600003008001030A4002730A5008A3184225B
:101616008B31003A031D112B003008004F011B14BB
:101626001D2B4001240825040319202B0130A40298
:101636000030A53B4F011B18142B4001240825043C
:101646000319272B01300800003008001030A400D1
:101656002730A5008A3184228B31003A031D352BB1
:10166600003008004F011B15412B400124082504BA
:101676000319442B0130A4020030A53B4F011B196E
:10168600382B40012408250403194B2B0130080090
:10169600003008004608470403190800460886007B
:1016A6004708870016000104031908006530480240
:1016B600031C5F2B6430C800460886004708870075
:1016C6004231480881004608860047088700403FA7
:1016D600BB00413FBC004808BD008E31CF26080044
:1016E60022088600870152311030010203180800D3
:1016F6002208860087015031010822078400003045
:10170600233D850024088000220886008701503189
:1017160022088400850110310008013E0F3981003E
:1017260022088600870152310130810708002030E7
:10173600A8003330A900AA01AA0A30088600310899
:101746008700010887310D278B31003A031DAD2B29
:10175600003008003008860031088700433133081E
:101766008100300886003108870044313308B20012
:101776000230B236890BBC2B3208033981000130A6
:101786000800A4001030A5002730A6008A31842264
:101796008B31003A031DD12B0030080024084F017D
:1017A6009600D92B0130A5020030A63B4F0119182F
:1017B600E02B1B081F390319E52B400125082604D9
:1017C600031DD52B4001250826040319CF2B031032
:1017D6004F011B1F03140030093D08002208860034
:1017E600870152310108031DFA2B00300800240836
:1017F6008600870122088400850111310008A500B2
:101806002508220784000030233D8500000881005A
:101816002208860087015131220884008501113192
:101826000008013E0F3981002208860087015231E7
:1018360001308102013008000030AD000030AC00FC
:101846000030AB000030AA00221C312C2608AA0763
:101856002708AB3D2808AC3D2908AD3D0130A6352B
:10186600A70DA80DA90D890B322C0130A536A40CA5
:10187600A30CA20C890B392C25082404230422046A
:10188600031D272C2D08A5002C08A4002B08A30057
:101896002A08A20008004B084C04031908004B084C
:1018A60086004C0887004D08C03F4E08C13F4B08D4
:1018B60086004C088700423181014B0886004C089F
:1018C600870043310030C03FC13F4B0886004C08BB
:1018D60087004531023081004B0886004C0887009E
:1018E60046310030C03FC13F4C08C7004B08C60018
:1018F6004F08C8008B314D230800440845040319DE
:1019060008008831D9208C31893179218C314408FD
:1019160086004508870043312B08C03F2C08C13F8D
:1019260044088600450887004331403FBB00413FDD
:10193600BC00F430BD000130BE00440886004508F6
:10194600870045310108BF008D31F825440886001F
:101956004508870046313B08C03F3C08C13F0800A8
:10196600AA002808031DBF2C2908031DBD2CBF2C67
:101976008B312923003008008B3105238C31AC00D4
:101986002C080319BD2C2A358B31C4238C31400118
:10199600AC002C080319BB2C27088B31C4238C31CF
:1019A6004001AC002C080319BB2CAB0129082B0203
:1019B6000318ED2C28082B078600870101088B31B8
:1019C600C4238C314001AC002C080319BB2C013018
:1019D600AB07D92C8B312923AC002C080800220830
:1019E6002304031908002208860087014531403F79
:1019F600A600413FA70025082702031D042D240841
:101A0600260203180E2D2208860087014531403F25
:101A1600A400413FA5002208860023088700403F16
:101A2600A600413FA700260886002708870024084D
:101A3600C03F2508C13F2208860087014231403F4A
:101A4600A600413FA700260886002708870022082F
:101A56008400850104310008810408002130A800B3
:101A66003230A9000530AA00300886003108870008
:101A7600010887310D278D31003A031D442D0030B2
:101A86000800300886003108870048313208810096
:101A9600300886003108870049313308C03F3408D2
:101AA600C13F30088600310887004B313508C03FFA
:101AB6003608C13F300886003108870047313008B4
:101AC60084003108850004310330000603196D2DAA
:101AD60001306E2D00308100013008005508BB3EF4
:101AE60086000030563D870001084101EA004001AA
:101AF6005608CC005508CB005708CD0041016A08AE
:101B06004001CE005508BB3E86000030563D87009A
:101B16000108D800D901D835D90DD835D90D0130ED
:101B2600580784000830593D80388500013F8A00F7
:101B3600003F0A008D314C084101EC0040014B0882
:101B46004101EB006B080319080040015608BD006F
:101B56005508BC0041016C084001BE008F311927B1
:101B66000800400198019A011211121692121414DB
:101B7600941014119415141694127D010C108C10E7
:101B86000C110C128C122010A0102011A011201282
:101B9600A0128D01A1018E01A201A3112312A41589
:101BA60024168B1355307C018C00AA308C000C1047
:101BB6008B170430C20010308F001330CB00143066
:101BC600CA0013307B0191000B309D000C309E0043
:101BD6001E309F001D30A0008B1355307C018C00F9
:101BE600AA308C000C148B1708003D083E04031D18
:101BF6003F08031D012EBB01BC0108003D08A200E1
:101C06003E08A300A401A5013F08C000C101C2010E
:101C1600C3014308A9004208A8004108A7004008DC
:101C2600A6008C311F248D312508B1002408B00090
:101C36002308AF002208AE003B08A2003C08A30020
:101C4600A401A5010030A9000030A800EA30A700D1
:101C56006030A6008C311F248D312508B50024087C
:101C6600B4002308B3002208B2008F31B0272F0832
:101C7600BC002E08BB000800782E1A0ECF004F0CB1
:101C86000139CF000130CF06CF0ECF0D1A084F060F
:101C9600DF394F069A004B08663E860000304C3D01
:101CA600870081014B0886004C0887004E31810170
:101CB6004B0886004C0887004F3181014B08643E73
:101CC600860000304C3D87008101003089310821B3
:101CD6002308CC002208CB0008004E088831F620E5
:101CE6002308CC002208CB0008004D08CF00D00105
:101CF6005008003A0319802E702E4F081B3A03191C
:101D0600402E702E0800C12E4B08BA3E86000030C9
:101D16004C3D87000108CF00D001CF35D00DCF351F
:101D2600D00DCF35D00D4F084B07D10050084C3D94
:101D3600D2005108A93EC4000030523DC5008C3186
:101D460080248E314B0886004C0887004E31810175
:101D56004B0886004C0887004F31810100308931DD
:101D660008212308CC002208CB0008004E08883141
:101D7600F6202308CC002208CB0008004D08CF002F
:101D8600D0015008003A0319C92EB92E4F08083A57
:101D96000319872EB92E08003B083C0403190800D6
:101DA60065303D02031CD92E6430BD000030B10001
:101DB6000030B0000030AF006430AE003B08860053
:101DC60087014531403FBE00413FBF003E08A200AB
:101DD6003F08A300A401A5013D08C000C101C2013E
:101DE600C3014308A9004208A8004108A70040080B
:101DF600A6008C311F248E312508B5002408B400B6
:101E06002308B3002208B2008F31B0278E312F0885
:101E1600C5002E08C4003C08A3003B08A2004508E4
:101E2600A5004408A4008C31F22408003C08BB3EFF
:101E3600860000303D3D870001083E060319080074
:101E46003C08BB3E860000303D3D87003E088100D1
:101E56003C08BB3E860000303D3D87000108BF00C0
:101E6600C001BF35C00DBF35C00DFF303F07840030
:101E76000730403D803885001200C1001200C104C1
:101E8600031908003D08B4003C08B3003C08BB3EFB
:101E9600860000303D3D87000108BF00C001BF3508
:101EA600C00DBF35C00DFF303F0784000730403DF1
:101EB60080388500013F8A00003F0A008F31080004
:101EC6001030A6002730A7002408031D6C2F003011
:101ED60008008A3184228F31003A03196A2F4F0194
:101EE6009B157E2F4001260827040319812F0130F8
:101EF600A6020030A73B4F01191C752F400126088A
:101F0600270403196A2F2408860087014F01160843
:101F1600810010304001A6002730A7002508031DC8
:101F2600972F4F019B16992F4F019B121B16A42F1B
:101F36004001260827040319A72F0130A602003006
:101F4600A73B4F011B1A9B2F4001260827040319A4
:101F5600AE2F01300800003008000030B900003014
:101F6600B8000030B7000030B600310830042F0446
:101F76002E040319F72F0130BA00B11BCC2F013004
:101F8600AE35AF0DB00DB10D890BC32F0130BA07B9
:101F9600C02F0130B635B70DB80DB90D890BCD2F51
:101FA60031083502031DE12F30083402031DE12FED
:101FB6002F083302031DE12F2E083202031CEC2FDB
:101FC6002E08B2022F08B33B3008B43B3108B53BAC
:101FD60036140130B136B00CAF0CAE0C890BED2FB8
:101FE6000130BA02031DCC2F3908B1003808B00001
:0A1FF6003708AF003608AE000800FF
:020000040001F9
:0A000E00EC3FFF3F9F3FFF3FFF3F25
:00000001FF
