:1000000080311D28730808007E148031003086007E
:10001000003087004101961A8C1E112889313A213F
:10002000803141019A1F1628901B19281A1B101F96
:100030001B288C317B247E10090080311F2855300D
:10004000840089308500DC30860000308700003075
:10005000FF000E3089312E21803134308400213070
:100060008500BC30FE000030FF0089312221803144
:10007000F001F101F201F301F401F501F6015A304A
:100080008400003085001430FE000030FF0089310C
:1000900022218031A0308400003085003C30FE00F9
:1000A0000030FF00893122217E1040018431B52CBF
:1000B000803102208031003A031974282508643EFB
:1000C00086000030263D870008300106031D742895
:1000D0008831CE2080312808A3002708A2001B30D9
:1000E000A4008B316D238031D230A2000030A300F8
:1000F0008931CF218031003A031D0B291D2903309E
:100100005206031985280130862800304001B100CD
:100110002508BA3E86000030263D87003108810060
:100120003108A900AA01A935AA0DA935AA0DA9353A
:10013000AA0D29082507AB002A08263DAC002B088C
:10014000AB3E860000302C3D870041015508810000
:1001500040012808A3002708A2001930A4008B3111
:100160006D2380311D2940012508663E8600003040
:10017000263D87000108031D1D292508663E8600CF
:100180000030263D8700053081002508663E860048
:100190000030263D8700053081002808A30027088D
:1001A000A2000430A4008B316D2380311D29400151
:1001B0002508663E86000030263D87000108031DA5
:1001C0001D292508663E86000030263D8700033045
:1001D00081002508663E86000030263D87000330FA
:1001E000CC2840012508663E86000030263D870069
:1001F0000108031D1D292508663E86000030263DA6
:100200008700043081002508663E86000030263DC8
:1002100087000430CC2841015208033A03197F2893
:10022000073A03197F28013A0319D728033A03191B
:10023000F128013A0319B3281D2940012508860039
:10024000260887004E31010803195D292508643E00
:1002500086000030263D870003300106031D5D291E
:1002600025088B3E86000030263D87000103031DD4
:100270004A2925088B3E86000030263D8700023043
:1002800081002808A3002708A2000E30A4008B31AB
:100290006D23080025088B3E86000030263D870030
:1002A00003300106031D08002808A3002708A20048
:1002B0000F30A4008B316D23080025088600260826
:1002C00087004E3101080319B22925088600260847
:1002D00087004F3101080319B22925088600260836
:1002E00087004A31403FA900413FAA00423FAB008E
:1002F000433FAC002508860026088700403FAD003C
:10030000413FAE00423FAF00433FB0002908AD027D
:100310002A08AE3B2B08AF3B2C08B03B80303002A4
:100320000318080040012508643E86000030263D81
:10033000870004300106031DA5292808A30027080B
:10034000A2000830A4008B316D2325088600260802
:1003500087004E31810125088600260887004F312D
:10036000810108002508663E86000030263D870092
:1003700001080319CC2925088600260887004E317C
:100380000108031DCC292808A3002708A200043077
:10039000A4008B316D238031250886002608870054
:1003A0004E310108031D0800250886002608870035
:1003B000403FA900413FAA00423FAB00433FAC0091
:1003C000410137084001A902410138084001AA3B18
:1003D000410139084001AB3B41013A084001AC3BC7
:1003E0002C08031DFC292B08031DFC29D0302902F1
:1003F00007302A3B031C0800400125088600260818
:100400008700403F4101B700413FB800423FB9007B
:10041000433FBA003A2A2508BA3E86000030263DFE
:10042000870081012808A3002708A2000530A40046
:100430008B316D230130E80008002508BA3E8600A4
:100440000030263D8700013081002808A3002708DE
:10045000A2000530A4008B316D230230E8000800B3
:100460002808A3002708A2000B30A4008B316D23BD
:10047000E801080040016808003A03190B2A013A14
:1004800003191D2A033A0319302A462A08003308A3
:10049000643E86000030343D870008308100330818
:1004A0008600340887004E3101308100362B330836
:1004B000663E86000030343D870003300106031994
:1004C000632A0130642A0030BA003A08B500B60148
:1004D000B535B60DB535B60DB535B60D350833079E
:1004E000B7003608343DB8003708A93EBB000030DD
:1004F000383DBC003A0803197F2A0630802A0530AF
:10050000B9003308683E86000030343D8700390862
:1005100081003308693E86000030343D8700033097
:10052000810033086A3E86000030343D87003B0876
:1005300084003C08850002310008810033086B3ECE
:1005400086000030343D87003B0884003C0885006D
:100550000631003FB500013FB60036088100330880
:100560006C3E86000030343D87003B0884003C0828
:1005700085000631332B3308683E86000030343D59
:100580008700073081003308693E86000030343D23
:1005900087000730810033086A3E86000030343D12
:1005A000870033088C3E84000030343D850000080D
:1005B000810033086B3E86000030343D87003308ED
:1005C000943E84000030343D8500000881003308EB
:1005D0006C3E86000030343D87003308953E840031
:1005E0000030343D8500003FB500013FB6003608BD
:1005F000810033086D3E86000030343D87003308AB
:10060000953E84000030343D8500000881003308A9
:100610006E3E86000030343D87003308973E8400EC
:100620000030343D8500003FB500013FB60036087C
:10063000810033086F3E86000030343D8700330868
:10064000973E84000030343D850000088100330867
:10065000703E86000030343D870033088F3E8400B2
:100660000030343D850000088100522B3308663E7F
:1006700086000030343D87000108B500B601360819
:10068000003A0319442B522B3508003A0319522B18
:10069000033A0319572A073A0319572A013A03194B
:1006A000BB2A522B3308683EA8000030343DA90015
:1006B0008331672382318831CE2082313308683E0E
:1006C000A2000030343DA3008831E7200800B201C9
:1006D000280886002908870052315A3081000130ED
:1006E000B20732082807AA000030293DAB002A08CB
:1006F00086002B08870052312808840029088500CD
:10070000000881000130B20732082807AA00003033
:10071000293DAB002A0886002B08870052312808A3
:100720008400290885000131000881000130B207EA
:10073000B1012808860029088700413101083102EB
:100740000318BF2B32082807AA000030293DAB0050
:100750002A0886002B088700523131082807AC0090
:100760000030293DAD002C0884002D0885000231A1
:10077000000881000130B2070130B107992B280829
:1007800086002908870041310108A2002808023E9E
:10079000AA000030293DAB002A08A3002B08A400C2
:1007A000280886002908870001088A31142283312D
:1007B000AC0032082807AD000030293DAE002D08FE
:1007C000123EAF0000302E3DB0002F0886003008EA
:1007D00087002C0881000130B20732082807AA00E0
:1007E0000030293DAB002A0886002B0887005231D3
:1007F000AA3081000130B20732082807AA00003071
:10080000293DAB002A0886002B088700523155305D
:1008100081000130B2072808223E86000030293DC1
:100820008700320881000800A42C4B08923E860005
:1008300000304C3D87000108031D342C4B08860016
:100840004C088700513101154B088B3E8600003063
:100850004C3D8700033081004E088831F02023088A
:10086000CC002208CB0008004B088C3EB0000030C2
:100870004C3DB1008B3194238431003A031D562C3A
:100880004B0886004C088700513101154B088B3E00
:10089000860000304C3D8700033081004E088831CF
:1008A000F0202308CC002208CB0008004B088F3E24
:1008B000860000304C3D8700811C702C4B088C3E1C
:1008C000B00000304C3DB1008D3131258431003A0B
:1008D000031D702C4B0886004C0887005131011510
:1008E0004B088B3E860000304C3D87000330810072
:1008F0004E088831F0202308CC002208CB000800E5
:100900004B088B3E860000304C3D870081014B0830
:1009100086004C0887004E3181014B08643E8600FA
:1009200000304C3D870081010030893102212308CD
:10093000CC002208CB0008004E088831F0202308A4
:10094000CC002208CB0008004D08CF00D001500891
:10095000003A0319AC2C9C2C4F080E3A0319152CA5
:10096000013A0319802C9C2C080089310C21843118
:100970008D31B42584318831F92084318931FC21CD
:1009800084318931A82184318931172184318A3118
:1009900062228431893196218431DD304001CB00DF
:1009A0002130CC00E330CD000030CE001430CF0039
:1009B0008731CE278431E530CB002130CC00DC30CC
:1009C000CD000030CE001E30CF008731CE278431DD
:1009D000ED30A7002130A800893147218431C03093
:1009E000B4002130B5005230B6008731762784310B
:1009F000C030AD002130AE000230AF008931BB21E4
:100A000084318831DB208431BF308600213087007B
:100A1000810134304001BD002130BE0086315026B6
:100A20008431BF304001A2000030A300893163212E
:100A300084316D080319342DED01343086002130E6
:100A400087005A08C03F5B08C13F5C08C23F5D0891
:100A5000C33F3430A5002130A600BF30A7000030CE
:100A6000A800803158208431BF304001A2000030FE
:100A7000A300ED30A4008B31EB238431003A03193D
:100A8000192D3430D5002130D60041016D084001C8
:100A9000D7008D3171258431342DFC00C02D5A30A2
:100AA0007C06031D08000130A000A301A40108007A
:100AB0007C08A1007C08A4060230A00008007C0885
:100AC000A2007C08A40609302202031C6A2D88318A
:100AD000D62008002208031D702D0430A000080055
:100AE000A3010330A0000800A530F7000030F80093
:100AF0002308770786000030783D87007C08810056
:100B00000130A3077C08A40622082302031C080066
:100B10006D2D24087C06031D672D0530A0000800FC
:100B2000AA307C06031D672D0630A0000800553052
:100B30007C06031D672D2108AD002208AE00FB01D5
:100B400022087B020318BD2DAF30F7000030F800FB
:100B50007B08770786000030783D8700A530F900D4
:100B60000030FA007B087907840000307A3D850068
:100B7000000881000130FB07A02D0130F200672D35
:100B800041012008F700F8017808003A0319C92D3F
:100B9000672D7708003A03194F2D013A0319582D94
:100BA000033A03195F2D013A0319742D073A03190B
:100BB000892D013A0319902D033A0319972D672DBA
:100BC0000800332E0130893102212308CC0022088D
:100BD000CB0008000230893102212308CC00220812
:100BE000CB0008004B08BA3E860000304C3D870021
:100BF0000108CF00D001CF35D00DCF35D00DCF3586
:100C0000D00D4F084B07D10050084C3DD200510881
:100C1000A93ED3000030523DD4005408C700530809
:100C2000C600530886005408870042310108C800F6
:100C30008B31472385314E088831F0202308CC00C2
:100C40002208CB0008000330893102212308CC00A0
:100C50002208CB0008004E088831F0202308CC0081
:100C60002208CB0008004D08CF00D0015008003A00
:100C700003193B2E2B2E4F08043A0319232E013A59
:100C80000319E22D033A0319E22D013A0319E22D6B
:100C90000C3A0319EA2D123A0319F22D2B2E0800F3
:100CA0003D08BB3E860000303E3D870081013D0887
:100CB00086003E0887000030C03FC13FC23FC33FAF
:100CC0003D0886003E088700513181013D088600BD
:100CD0003E088700503181013D08623E86000030A9
:100CE0003E3D870081013D08633E860000303E3D69
:100CF000870081013D08BB3E860000303E3D8700F5
:100D00000108BF00C001BF35C00DBF35C00D0030A8
:100D10003F0784000830403D803885001200C10044
:100D20001200C104031908003E08B4003D08B300D6
:100D30003D08BB3E860000303E3D87000108BF00F5
:100D4000C001BF35C00DBF35C00D00303F07840066
:100D50000830403D80388500013F8A00003F0A008E
:100D6000863108003308643E86000030343D870039
:100D70000430810033088600340887004E3101308A
:100D80008100F430B5000130B6000030B70000300B
:100D9000B8005A08B5075B08B63D5C08B73D5D086A
:100DA000B83D33088600340887004A313508C03F13
:100DB0003608C13F3708C23F3808C33F33088600B2
:100DC000340887004F31013081003308B93EA2005A
:100DD0000030343DA3003308BA3E86000030343D75
:100DE00087000108A4008A31BA2286313308BA3E4E
:100DF00086000030343D87000108B500B601B535E6
:100E0000B60DB535B60DB535B60D35083307B70097
:100E10003608343DB8003708A93EA2000030383DFE
:100E2000A3008A312C220800AD00290803191E2FC7
:100E30002A0803191E2F202F8B312323003008008E
:100E40008A31FF228731AF002F0803191E2F2D355D
:100E50008B31BE2387314001AF002F0803191C2FAF
:100E600028088B31BE2387314001AF002F080319BA
:100E70001C2F8A31DB228731AF002F0803191C2F6A
:100E800003142D0D8B31BE2387314001AF002F0895
:100E900003191C2FAE012A082E020318712F2908EE
:100EA0002E07A4002A08FF3EAB00FF3003180030D5
:100EB000AC002C08803A803C031D602F2B082E02CA
:100EC0000318642F0130652F00304001A5008F31D9
:100ED00063278731AF002F0803191C2F0130AE079D
:100EE0004B2F8B312323AF002F08080034088600D6
:100EF00035088700360881003408860035088700E9
:100F0000453181013408860035088700463181016A
:100F10003408860035088700473181013730B0003A
:100F200036088A3146228731003A031908006030BA
:100F30003706031D08003803031D08003408860027
:100F40003508870041313708C03F3808C13F3408B1
:100F50008600350887004531013081003508AE0034
:100F60003408AD00AF01AF0A8931BB218731003AA7
:100F7000031908003508AE003408AD000230AF0098
:100F80008931BB218731003A0319080034088600F3
:100F90003508870046310130810008004B084C04B9
:100FA000031908004B0886004C0887004D08C03F15
:100FB0004E08C13F4B0886004C0887004231810132
:100FC0004B0886004C08870043310030C03FC13FCA
:100FD0004B0886004C0887004531023081004B08E1
:100FE00086004C08870046310030C03FC13F4C08A6
:100FF000C7004B08C6004F08C8008B3147230800C4
:10100000CD340834E1340534B234063486340E3439
:101010009C340A3414340434473402343F340E34DC
:10119A000800F301080046010E14080046010E106B
:1011AA0008004101A001A101A20108004101A0011A
:1011BA00A101A201080046010E108D018C01410116
:1011CA000D1308002308F1002208F000F401F301CE
:1011DA0041011A170800A400A5012408A600260840
:1011EA00A3002508A20008008B130B1741019616CD
:1011FA009A171A138C128B170800A4000130A50045
:10120A002408A6002608A3002508A20008006030CA
:10121A0045018D0040308F00910104309300920106
:10122A009401080046010E108F139101CF308E05EC
:10123A000E118E148D018C010800640080010131A9
:10124A000130FE020030FF3B7F087E0403190034A0
:10125A002329FE0012001E000130FE020030FF3B6F
:10126A007F087E04031900342F298C1201304001B3
:10127A00ED000130DA070030DB3DDC3DDD3D0130B9
:10128A00EA0708002708860028088700810112114A
:10129A002808A3002708A200A4018A31BA2208005C
:1012AA0099340434953404340434F33401349734CF
:1012BA000434953404340434F334013422088600A7
:1012CA00870150318101220886008701513181014D
:1012DA002208860087015231810108000E108931E7
:1012EA00E5212308AE002208AD0046018D018C01DC
:1012FA000E1440012E08AC002D08AB000800220A8B
:10130A00860087010108A400A5012408A500A401FC
:10131A0022088600870124080104A2002508A300E8
:10132A0008004F019A019B019C014101911211127F
:10133A0080304F019900273097001A08F039083891
:10134A009A009A16080043019E131E12F0309E0559
:10135A001F081F3940389F001F121F08F03905382F
:10136A009F007C309D009C019E1708002D082E04CA
:10137A00031DC129003008001030A7002F30A80033
:10138A00A901A90A2D0886002E08870001088C31B8
:10139A00B32408007208031DD42900300800AD30B8
:1013AA0086000030870022088400230885000A305E
:1013BA00A40016001A00A40BDE29F201013008006D
:1013CA000C084001A90046010D084001AA0029089D
:1013DA00A400A5012A08A600A7012608A700A601BD
:1013EA0024082604A20025082704A30008004E01A9
:1013FA008D01403092009001223091008E018F01C0
:10140A009215111511129017911610161113101327
:10141A0001308F00A0308E008831DB200800A50043
:10142A00A6012508A6062208A606A7012208270261
:10143A0003182A2A2708230786000030243D87003C
:10144A000108A6060130A7071B2A26080800220859
:10145A002304031908002208860023088700433161
:10146A000030C03FC13F220886002308870046316A
:10147A000030C03FC13F8831E0208A318831D02016
:10148A000800B100A8013230A9000230AA003108D0
:10149A00873114278A31003A031D552A0030080083
:1014AA003230A2008931842130088600870122085F
:1014BA00C03F2308C13F0130080049018C010330B5
:1014CA008D008E0101309000F3308F00910194104D
:1014DA00141095171515961316139611F8309605CC
:1014EA00003098005A30970000309A0078309900FE
:1014FA0008001030A2002730A300872A0130A20278
:10150A000030A33B4F0119198E2A1B081F390319F2
:10151A00932A400122082304031D832A400122083A
:10152A00230403199A2A01300800003008003308FE
:10153A00643E86000030343D870003308100330862
:10154A008600340887004E310130810033088B3E13
:10155A0086000030343D8700013081003308860060
:10156A00340887004F3181010800CA2A181122085D
:10157A0086002308870081010800181522088600C2
:10158A00230887000130810008002408A500A6016D
:10159A002608003A0319D22ADA2A2508003A03193A
:1015AA00BB2A013A0319C22ADA2A08001030A40019
:1015BA002730A5008A317E228A31003A031DE72AA4
:1015CA00003008004F019B14F32A40012408250427
:1015DA000319F62A0130A4020030A53B4F019B18DB
:1015EA00EA2A4001240825040319FD2A01300800CB
:1015FA00003008001030A4002730A5008A317E226E
:10160A008A31003A031D0B2B003008004F011B14CE
:10161A00172B40012408250403191A2B0130A402B0
:10162A000030A53B4F011B180E2B4001240825044E
:10163A000319212B01300800003008001030A400E3
:10164A002730A5008A317E228B31003A031D2F2BC9
:10165A00003008004F011B153B2B400124082504CC
:10166A0003193E2B0130A4020030A53B4F011B1980
:10167A00322B4001240825040319452B01300800A8
:10168A000030080046084704031908004608860087
:10169A00470887001600010403190800653048024C
:1016AA00031C592B6430C800460886004708870087
:1016BA004231480881004608860047088700403FB3
:1016CA00BB00413FBC004808BD008E31CF26080050
:1016DA0022088600870152311030010203180800DF
:1016EA002208860087015031010822078400003051
:1016FA00233D850024088000220886008701503196
:10170A0022088400850110310008013E0F3981004A
:10171A0022088600870152310130810708002030F3
:10172A00A8003330A900AA01AA0A300886003108A5
:10173A0087000108873114278B31003A031DA72B34
:10174A00003008003008860031088700433133082A
:10175A008100300886003108870044313308B2001E
:10176A000230B236890BB62B3208033981000130B8
:10177A000800A4001030A5002730A6008A317E2276
:10178A008B31003A031DCB2B0030080024084F018F
:10179A009600D32B0130A5020030A63B4F01191841
:1017AA00DA2B1B081F390319DF2B400125082604F1
:1017BA00031DCF2B4001250826040319C92B03104A
:1017CA004F011B1F03140030093D08002208860040
:1017DA00870152310108031DF42B00300800240848
:1017EA008600870122088400850111310008A500BE
:1017FA002508220784000030233D85000008810067
:10180A00220886008701513122088400850111319E
:10181A000008013E0F3981002208860087015231F3
:10182A0001308102013008000030AD000030AC0008
:10183A000030AB000030AA00221C2B2C2608AA0775
:10184A002708AB3D2808AC3D2908AD3D0130A63537
:10185A00A70DA80DA90D890B2C2C0130A536A40CB7
:10186A00A30CA20C890B332C25082404230422047C
:10187A00031D212C2D08A5002C08A4002B08A30069
:10188A002A08A20008004408450403190800883100
:10189A00D3208C31893173218C3144088600450864
:1018AA00870043312B08C03F2C08C13F44088600FB
:1018BA00450887004331403FBB00413FBC00F4303C
:1018CA00BD000130BE004408860045088700453146
:1018DA000108BF008D31F8254408860045088700B5
:1018EA0046313B08C03F3C08C13F08004E01901CEE
:1018FA00802C101210164101901F8A2C4E010C08E0
:10190A00FD007D0885314D258C31101F08007008B7
:10191A0071040319AC2C7008223E86000030713D18
:10192A008700010874020318AC2C74087007400180
:10193A00A0000030713DA100200886002108870020
:10194A00523101084E018D000130F40708001A13C4
:10195A00F001F101F4010130F3000800AA0028089F
:10196A00031DBF2C2908031DBD2CBF2C8B3123233B
:10197A00003008008A31FF228C31AC002C08031990
:10198A00BD2C2A358B31BE238C314001AC002C088A
:10199A000319BB2C27088B31BE238C314001AC00C4
:1019AA002C080319BB2CAB0129082B020318ED2CB8
:1019BA0028082B078600870101088B31BE238C314A
:1019CA004001AC002C080319BB2C0130AB07D92C01
:1019DA008B312323AC002C080800220823040319A6
:1019EA0008002208860087014531403FA600413F92
:1019FA00A70025082702031D042D24082602031820
:101A0A000E2D2208860087014531403FA400413F40
:101A1A00A5002208860023088700403FA600413F10
:101A2A00A70026088600270887002408C03F250843
:101A3A00C13F2208860087014231403FA600413F4C
:101A4A00A700260886002708870022088400850147
:101A5A0004310008810408002130A8003230A900AE
:101A6A000530AA003008860031088700010887314E
:101A7A0014278D31003A031D442D00300800300828
:101A8A008600310887004831320881003008860014
:101A9A003108870049313308C03F3408C13F300854
:101AAA008600310887004B313508C03F3608C13FF0
:101ABA003008860031088700473130088400310831
:101ACA00850004310330000603196D2D01306E2D97
:101ADA0000308100013008005508BB3E8600003006
:101AEA00563D870001084101EA0040015608CC0032
:101AFA005508CB005708CD0041016A084001CE00C5
:101B0A005508BB3E86000030563D87000108D800C4
:101B1A00D901D835D90DD835D90D023058078400E6
:101B2A000830593D80388500013F8A00003F0A008D
:101B3A008D314C084101EC0040014B084101EB009A
:101B4A006B080319080040015608BE005508BD007D
:101B5A0041016C084001BF008F311927080040017C
:101B6A0098019A0112111216921214149410141157
:101B7A009415141694127D010C108C100C110C1271
:101B8A008C122010A0102011A0112012A0128D0179
:101B9A00A1018E01A201A3112312A41524168B13ED
:101BAA0055307C018C00AA308C000C108B17043045
:101BBA00C20010308F001330CB001430CA0013302B
:101BCA007B0191000B309D000C309E001E309F005F
:101BDA001D30A0008B1355307C018C00AA308C007C
:101BEA000C148B1708003D083E04031D3F08031D13
:101BFA00012EBB01BC0108003D08A2003E08A3005B
:101C0A00A401A5013F08C000C101C201C3014308E4
:101C1A00A9004208A8004108A7004008A6008C3184
:101C2A0019248D312508B1002408B0002308AF001B
:101C3A002208AE003B08A2003C08A300A401A501AB
:101C4A000030A9000030A800EA30A7006030A600E2
:101C5A008C3119248D312508B5002408B4002308D5
:101C6A00B3002208B2008F31B0272F08BC002E081B
:101C7A00BB000800782E1A0ECF004F0C0139CF0096
:101C8A000130CF06CF0ECF0D1A084F06DF394F06A7
:101C9A009A004B08663E860000304C3D8700810161
:101CAA004B0886004C0887004E3181014B0886009C
:101CBA004C0887004F3181014B08643E8600003092
:101CCA004C3D870081010030893102212308CC0074
:101CDA002208CB0008004E088831F0202308CC00E7
:101CEA002208CB0008004D08CF00D0015008003A66
:101CFA000319802E702E4F081B3A0319402E702E9E
:101D0A000800C12E4B08BA3E860000304C3D8700C1
:101D1A000108CF00D001CF35D00DCF35D00DCF354A
:101D2A00D00D4F084B07D10050084C3DD200510846
:101D3A00A93EC4000030523DC5008C3148248E3182
:101D4A004B0886004C0887004E3181014B088600FB
:101D5A004C0887004F318101003089310221230864
:101D6A00CC002208CB0008004E088831F020230856
:101D7A00CC002208CB0008004D08CF00D001500843
:101D8A00003A0319C92EB92E4F08083A0319872EAB
:101D9A00B92E08003B083C040319080065303D02CF
:101DAA00031CD92E6430BD000030B1000030B000F1
:101DBA000030AF006430AE003B0886008701453131
:101DCA00403FBE00413FBF003E08A2003F08A300BB
:101DDA00A401A5013D08C000C101C201C301430815
:101DEA00A9004208A8004108A7004008A6008C31B3
:101DFA0019248E312508B5002408B4002308B3003D
:101E0A002208B2008F31B0278E312F08C5002E0864
:101E1A00C4003C08A3003B08A2004508A5004408EA
:101E2A00A4008C31F22408003D08BB3E8600003035
:101E3A003E3D870001083F06031908003D08BB3EE6
:101E4A00860000303E3D87003F0881003D08BB3ECA
:101E5A00860000303E3D87000108C000C101C03540
:101E6A00C10DC035C10D0030400784000830413D26
:101E7A00803885001200C2001200C204031908004B
:101E8A003E08B4003D08B3003D08BB3E8600003062
:101E9A003E3D87000108C000C101C035C10DC035F3
:101EAA00C10D0030400784000830413D803885006C
:101EBA00013F8A00003F0A008F3108001030A60057
:101ECA002730A7002408031D6C2F003008008A3130
:101EDA007E228F31003A03196A2F4F019B157E2FFC
:101EEA004001260827040319812F0130A602003079
:101EFA00A73B4F01191C752F400126082704031917
:101F0A006A2F2408860087014F01160881001030C5
:101F1A004001A6002730A7002508031D972F4F016F
:101F2A009B16992F4F019B121B16A42F40012608BE
:101F3A0027040319A72F0130A6020030A73B4F013F
:101F4A001B1A9B2F4001260827040319AE2F0130C4
:101F5A000800003008000030B9000030B800003036
:101F6A00B7000030B600310830042F042E040319DC
:101F7A00F72F0130BA00B11BCC2F0130AE35AF0DAF
:101F8A00B00DB10D890BC32F0130BA07C02F013034
:101F9A00B635B70DB80DB90D890BCD2F31083502FD
:101FAA00031DE12F30083402031DE12F2F083302ED
:101FBA00031DE12F2E083202031CEC2F2E08B20259
:101FCA002F08B33B3008B43B3108B53B3614013017
:101FDA00B136B00CAF0CAE0C890BED2F0130BA0242
:101FEA00031DCC2F3908B1003808B0003708AF00FC
:061FFA003608AE000800ED
:020000040001F9
:0A000E00EC3FFF3F9F3FFF3FFF3F25
:00000001FF
