:0400000080312C28F7
:100008007E14803100308600003087004101961E42
:100018000E280F2816288C1E122813281628873118
:100028007627803141019A1F1A281B281F28901B08
:100038001E281F2827281A1F222823282A28101F8D
:10004800262827282A2885311F2580317E10090077
:1000580080312E288731C8278031E1008731C927B0
:100068008031E2002B30840087308500C73086005D
:10007800003087000030FF0013308731842780313B
:100088004830840021308500A830FE000030FF0091
:10009800873190278031F001F101F201F301F40179
:1000A800F501F60120308400003085002630FE007E
:1000B8000030FF00873190278031A0308400003065
:1000C80085002730FE000030FF00873190278031FF
:1000D80020308400013085003B30FE000030FF00F6
:1000E800873190278031A03084000130850020308E
:1000F800FE000030FF008731902780317E104001DC
:10010800813136294001D8014E0886004F08870002
:100118004A315A3081000130D80758084E07D000BC
:1001280000304F3DD10050088600510887004A3101
:100138004E0884004F088500000881000130D80768
:1001480058084E07D00000304F3DD10050088600B7
:10015800510887004A314E0884004F088500013154
:10016800000881000130D807D701D62858084E0763
:10017800D00000304F3DD10050088600510887005C
:100188004A3157084E07D20000304F3DD30052087D
:100198008400530885000231000881000130D80727
:1001A8000130D7074E0886004F0887004131010803
:1001B8005702031CE028E128BA284E0886004F0899
:1001C800870041310108C8004E08023ED0000030C7
:1001D8004F3DD1005008C9005108CA004E0886009A
:1001E8004F08870001088631F82680314001D20087
:1001F80058084E07D30000304F3DD40053080A3E3C
:10020800D5000030543DD6005508860056088700B2
:10021800520881000130D80758084E07D000003036
:100228004F3DD10050088600510887004A31AA3056
:1002380081000130D80758084E07D00000304F3DE4
:10024800D10050088600510887004A315530810096
:100258000130D8074E0886004F0887005A315808E1
:100268008100080087319C2781318431DB2481316A
:100278008731B12781318631DA26813187313E27AE
:100288008131873164278131DC304001DA00003068
:10029800DB005230DC0083310D2381314101DA016A
:1002A800DB0115304001E0004B30DF00BE30890B28
:1002B8005B29DF0B5B29E00B5B290000DA3040018A
:1002C800D600523086318C26813115304001E0004D
:1002D8004B30DF00BE30890B6F29DF0B6F29E00B35
:1002E8006F290000DC304001D3000030D400023018
:1002F800D50087311327813115304001E0004B309C
:10030800DF00BE30890B8629DF0B8629E00B8629A2
:100318000000DC304001D6000030D7008531D325FD
:10032800813115304001E0004B30DF00BE30890BD1
:100338009B29DF0B9B29E00B9B290000DC30400147
:10034800D6000030D7008431902481311530400127
:10035800E0004B30DF00BE30890BB029DF0BB0293D
:10036800E00BB029000040304001C8000130C9004E
:10037800DC30CA000030CB008331DC2381314030CF
:100388004001CE000130CF008031862081314030DD
:100398004001C8000130C9008731A7278131CB301F
:1003A8004001E000EC30DF008430890BD929DF0BF5
:1003B800D929E00BD92900008D2980312C28FC008F
:1003C8006B2A5A307C06031DEA29EB298B2A013057
:1003D800A000A301A4018B2A7C08A1007C08A40624
:1003E8000230A0008B2A7C08A2007C08A4060930F1
:1003F8002202031C002A012A052A8731C1278131DC
:100408008B2A2208031D092A0A2A0D2A0430A00073
:100418008B2AA3010330A0008B2A2530F700003077
:10042800F8002308770786000030783D87007C08AD
:1004380081000130A3077C08A40622082302031CBC
:10044800262A272A8B2A0A2A24087C06031D2D2AF5
:100458002E2A012A0530A0008B2AAA307C06031D0B
:10046800362A372A012A0630A0008B2A55307C0606
:10047800031D3F2A402A012A21084101A00040010A
:1004880022084101A100FB01612AA230F7000030D7
:10049800F8007B08770786000030783D8700253014
:1004A800F9000030FA007B087907840000307A3DB3
:1004B8008500000881000130FB07400122087B020B
:1004C800031C672A682A492A0130B900012A400119
:1004D8002008F700F8017808003A0319742A012A5D
:1004E8007708003A0319E529013A0319F029033A74
:1004F8000319F729013A0319112A073A0319282A77
:10050800013A0319312A033A03193A2A012A080041
:100518004001D3004F080319922A932A982A5008B9
:10052800031D972A982A9A2A00300C2B86313426E4
:1005380082314001D5005508031DA32AA42AA52A03
:10054800982A53358531632582314001D5005508F5
:10055800031DAF2AB02AB42A863108268231982A88
:100568004E088531632582314001D5005508031DA9
:10057800BE2ABF2AC02AB02A8631602682314001AD
:10058800D5005508031DC92ACA2ACB2AB02A031444
:10059800530D8531632582314001D5005508031D6F
:1005A800D62AD72AD82AB02AD401002B4F085407B4
:1005B800CA005008FF3ED100FF3003180030D200B7
:1005C8005208803A803C031DEB2A51085402031C50
:1005D800EE2AF02A0130F12A00304001CB008331A5
:1005E8007C2382314001D5005508031DFC2AFD2AD1
:1005F800FE2AB02A0130D40750085402031C052BE8
:10060800062BDA2A8631082682314001D5005508A2
:10061800080040015A085B04031D132B142B152BEB
:100628007B2B5A0886005B0887005C0881005A0803
:1006380086005B088700453181015A0886005B08FF
:100648008700463181015A0886005B0887004731D8
:1006580081015D30D6005C0886318C268331003AF2
:10066800031D372B382B392B7B2B603040015D065F
:10067800031D432B5E030319422B432B442B7B2B77
:100688005A0886005B08870041315D08C03F5E0854
:10069800C13F5A0886005B08870045310130810058
:1006A8005B08D4005A08D300D501D50A873113272F
:1006B8008331003A031D612B622B632B7B2B400196
:1006C8005B08D4005A08D3000230D50087311327BD
:1006D8008331003A031D712B722B732B7B2B400146
:1006E8005A0886005B0887004631013081000800FF
:1006F80010304001CC002730CD004A08031D852B5F
:10070800862B882B0030DB2B8631B4268331003AC8
:10071800031D8F2B902B912B862B4F019B15982B0C
:100728000130CC020030CD3B4F0119189C2B9D2B7A
:10073800A42B40014C084D04031DA32BA42B942B80
:1007480040014C084D04031DAA2BAB2BAC2B862B68
:100758004A08860087014F011608810010304001C1
:10076800CC002730CD004B080319BB2BBE2B4F0103
:100778009B16C02B4F019B121B16C62B0130CC02B7
:100788000030CD3B4F011B1ECA2BCB2BD22B400177
:100798004C084D04031DD12BD22BC22B40014C0811
:1007A8004D04031DD82BDA2B0130DB2B0030080059
:1007B800400148088600490887000730810048083A
:1007C80086004908870041310630810048088600C4
:1007D8004908870042314A0884004B0885000831DF
:1007E80000088100480886004908870043314A0804
:1007F80084004B08850009310008810048088600FC
:100808004908870044314A0884004B0885000931AB
:10081800003FCC00013FCD004D088100480886000C
:100828004908870045314A0884004B0885000B3188
:1008380000088100480886004908870046314A08B0
:1008480084004B0885000B31003FCC00013FCD00F0
:100858004D088100480886004908870047314A0842
:1008680084004B088500033100088100080040011E
:10087800D0004E08031D412C422C492C4F08031967
:10088800462C472C492C00308F2C86313426843155
:100898004001D2005208031D522C532C542C472CD3
:1008A80050358531632584314001D2005208031D3B
:1008B8005E2C5F2C632C863108268431472C4D082A
:1008C8008531632584314001D2005208031D6D2C07
:1008D8006E2C6F2C5F2CD101832C4E08510786009B
:1008E800870101088531632584314001D20052080F
:1008F800031D7F2C802C812C5F2C0130D1074F08E1
:100908005102031C882C892C712C863108268431CD
:100918004001D20052080800400156085704031D40
:10092800962C972C992C0030DA2C2130CE00583098
:10093800CF000530D0005608860057088700010808
:1009480082318C228431003A031DAB2CAC2CAD2CA7
:10095800972C4001560886005708870048315808E8
:100968008100560886005708870049315908C03F5A
:100978005A08C13F56088600570887004B315B0864
:10098800C03F5C08C13F56088600570887004731BA
:100998005608840057088500043103300006031DFB
:1009A800D62CD82C0130D92C003081000800400109
:1009B80098019A011211121692121414941014111B
:1009C8009415141694127D010C108C100C110C1235
:1009D8008C122010A0102011A0112012A0128D013D
:1009E800A1018E01A201A3112312A41524168B13B1
:1009F80055307C018C00AA308C000C108B17043009
:100A0800C20010308F001330CB001430CA001330EE
:100A18007B0191000B309D000C309E001E309F0022
:100A28001D30A0008B1355307C018C00AA308C003F
:100A38000C148B1708004E01901C232D242D262DF5
:100A4800101210164101901F2A2D2B2D322D4E0108
:100A58000C08FD007D088131E32185314101101F1B
:100A6800362D372D622D40013108320403193D2DF2
:100A78003E2D5A2D31088600320887005A31010868
:100A880074020318482D492D5A2D74083107C600E1
:100A98000030323DC70046088600470887004A31C3
:100AA80001084E018D000130F407622D41011A132F
:100AB8004001B101B201F4010130C5000800400154
:100AC800CA001030CB002730CC008631B4268531DF
:100AD800003A031D702D712D732D00309C2D40019F
:100AE8004A084F0196007C2D0130CB020030CC3BE8
:100AF8004F011918802D812D872D1B081F390319C7
:100B0800862D872D8E2D40014B084C04031D8D2DFD
:100B18008E2D782D40014B084C04031D942D952DE6
:100B2800962D712D03104F011B1F03140030093D32
:100B38000800003400340034003400340034003439
:100B480000340034003400340034003400340034FD
:100B580000340034003400340034003400340034ED
:100B680000340034003400340034003400340034DD
:100B780000340034003400340034003400340034CD
:100B880000340034003400340034003400340034BD
:100B980000340034003400340034003400344001A0
:100BA80056085704031DD92DDA2DDC2D0030072EE9
:100BB8002030CE005930CF00D001D00A5608860028
:100BC80057088700010882318C228531003A031DBD
:100BD800EE2DEF2DF02DDA2D40015608860057082E
:100BE8008700433159088100560886005708870056
:100BF80044315908D8000230D836890B002E5808DD
:100C0800033981000130080010304001CA00273044
:100C1800CB008631B4268631003A031D142E152EDA
:100C2800172E0030332E4F011B151E2E0130CA021D
:100C38000030CB3B4F011B1D222E232E2A2E4001B4
:100C48004A084B04031D292E2A2E1A2E40014A0851
:100C58004B04031D302E322E0130332E0030080095
:100C680010304001CA002730CB008631B4268631C7
:100C7800003A031D402E412E432E00305F2E4F01B7
:100C88001B144A2E0130CA020030CB3B4F011B1CFB
:100C98004E2E4F2E562E40014A084B04031D552E4A
:100CA800562E462E40014A084B04031D5C2E5E2E2C
:100CB80001305F2E0030080010304001CA00273094
:100CC800CB008631B4268631003A031D6C2E6D2E7A
:100CD8006F2E00308B2E4F019B14762E0130CA02E6
:100CE8000030CB3B4F019B1C7A2E7B2E822E40017D
:100CF8004A084B04031D812E822E722E40014A0899
:100D08004B04031D882E8A2E01308B2E00300800DC
:100D18004001D7005608031D922E932E952E0030C1
:100D2800B32ECE015830CF000230D00057088231A0
:100D38008C228631003A031DA22EA32EA42E932EB8
:100D480058304001C8008731512786314001560884
:100D5800860087014808C03F4908C13F01300800A4
:100D680010304001C8002730C900BE2E0130C8022B
:100D78000030C93B4F011919C22EC32EC92E1B08BA
:100D88001F390319C82EC92ED02E4001480849041E
:100D9800031DCF2ED02EBA2E400148084904031D4A
:100DA800D62ED82E0130D92E003008004E018D01E4
:100DB800403092009001223091008E018F019215EF
:100DC80011151112901791161016111310130130E6
:100DD8008F00A0308E004001BB01F601F501BA0179
:100DE8008731BA27863108004001CB00CC014B0877
:100DF800CC064808CC06CD010B2F4D0849078600C4
:100E080000304A3D87000108CC060130CD0748086C
:100E18004D02031C102F112F012F4C080800400110
:100E280053085404031D192F1A2F1C2F00302A2F82
:100E38001030CD005530CE00CF01CF0A53088600C0
:100E480054088700010884313B248731080099340D
:100E58000434953404340434F334013497340434BA
:100E6800953404340434F33401341834003412341F
:100E78000034043443019E131E12F0309E051F08EF
:100E88001F3940389F001F121F08F03905389F008E
:100E98007C309D009C019E1708004001480A86008E
:100EA80087010108CA00CB014A08CB00CA014808DB
:100EB800860087014A080104C8004B08C9000800D9
:100EC8004F019A019B019C0141019112111280303E
:100ED8004F019900273097001A08F03908389A000E
:100EE8009A16080041018C1201304001C1000130FE
:100EF800F0070030F13DF23DF33D0130C007080036
:100F0800FE0012001E000130FE020030FF3B7F0889
:100F18007E04031D852F00346400800101310130F7
:100F2800FE020030FF3B7F087E04031D912F003432
:100F3800603045018D0040308F00910104309300EE
:100F480092019401080040014908B2004808B10024
:100F5800F401C50141011A1708008B130B17410151
:100F680096169A171A138C128B1708004001A001C5
:100F7800A101A201A301A40108004001A001A1014F
:0C0F8800A201A301A4010800F43401340C
:020000040001F9
:0A000E00EC3FFF3F9F3FFF3FFF3F25
:00000001FF
